:020000040800F2
:1030000000000120A5820008FD560008FF560008B8
:10301000015700080357000805570008000000008A
:103020000000000000000000000000000957000838
:1030300007570008000000000B5700080D57000854
:1030400011570008135700081557000817570008B4
:10305000195700081B5700081D5700081F57000884
:1030600021570008235700082557000800000000DA
:103070000000000000000000000000000000000050
:103080000000000000000000275700082957000832
:103090002B5700082D5700082F57000831570008FC
:1030A00033570008355700083757000839570008CC
:1030B0003B5700083F570008415700084357000896
:1030C0004557000847570008495700084B57000864
:1030D0004D5700084F570008535700085557000830
:1030E000595700085B5700085D5700085F570008F4
:1030F00061570008635700086557000867570008C4
:10310000695700086B5700086D5700086F57000893
:10311000715700087357000877570008795700085F
:103120007B5700087D5700087F570008815700082B
:043130005FF8000044
:103134000D4B10B500241C800C4B0D481C8003F073
:1031440065FC0C4B186803F063FC0B4803F05EFC51
:103154000A4B1C700A4B1C700A4B1C700A4B1C70E7
:103164000A4B1C7010BD00BF74020020DC0000205C
:10317400708400087C00002016870008F9000020F5
:1031840016010020DE0000208B0100201C0100201D
:103194002DE9F041FF2492B020468DF8004003F061
:1031A40034F920468DF8014003F02FF900256C46D0
:1031B4006F46A8460126E8B2A07004F07BF9E670D9
:1031C400012004F077F9012003F030FB2071012085
:1031D40003F02CFB04F06EF9012003F029FB60716D
:1031E400012003F025FB04F065F984F80680002033
:1031F40004F060F94FF4C57003F018FBE0714FF46C
:10320400C57003F013FB04F055F94FF4C57003F0D7
:103214000FFB20724FF4C57003F00AFB04F04AF967
:103224006672012004F046F9012003F0FFFAA0724F
:10323400012003F0FBFA04F03DF9012003F0F8FA51
:10324400E072012003F0F4FA013504F033F9062D9D
:1032540004F10A04AFD13E21384603F08FFB04F099
:1032640029F912B0BDE8F0810A4900230B800A490C
:103274000A4A0B80FF21137053609360D360D361BB
:1032840013625362D3635364136482F84810044A8C
:103294001370704774020020DC000020EC01002051
:1032A4007602002010B502F0F5FF0128044619D17A
:1032B40003F094F80D4B187003F098F80C4B187049
:1032C40003F07CF80B4B187003F080F80A4B18706D
:1032D40003F068F8094B187003F06AF8084B18708B
:1032E400204610BDFFF754FF002010BD1801002038
:1032F4000F0100201E010020900100208F010020FA
:103304008D0100202DE9F04140F27714DB01C90161
:10331400D20191FBF4F192FBF4F593FBF4F4144B1A
:1033240001F500711B7805F5007504F5007489B288
:10333400ADB2A4B200F1060800F10C0743B10D4B85
:1033440023F8101023F8185023F81740BDE8F08133
:10335400094E305602F00EFB294616F9080002F019
:1033640009FB2146F057BDE8F04102F003BB00BF62
:103374001D01002050020020948A000881428CBF65
:10338400081A401A80B24FF454735843B0FBF2F059
:1033940080B2B0F5806F03D2192898BF1A20704705
:1033A40040F2FF30704700002DE9F0410446FE2052
:1033B4000F4603F00DFA832003F010FA2146002093
:1033C40003F012FA0121084603F00EFA134EDFF857
:1033D40050800025306885420DDA15F80810013553
:1033E4006C00E4B2204603F0FFF9601C3946C0B219
:1033F40003F0FAF9EEE70230400000F0FE0003F0BB
:10340400F9F903F035FA03F0DDF9044603F054F852
:103414002046BDE8F04103F011B800BF7802002057
:10342400948A000808B5084B01221A70074B12222F
:103434001A6002F0A5F9064B002119700520BDE8B9
:103444000840FFF7B1BF00BFF80000207802002059
:103454001D0100202DE9F84F344B82461B78002BC8
:1034640060D0FE2003F0B4F9832003F0B7F91E21E5
:10347400002003F0B9F900240421012003F0B4F979
:103484002546DFF8B4902A4FDFF8B0B0D9F8000031
:10349400661D8542F6B231DA524637F815103BF80C
:1034A4001500FFF76BFF234B8046A01C595DC0B28B
:1034B40003F09AF937F8150003F0B8F9E31C014654
:1034C400D8B203F091F937F8150003F0B1F9231DD0
:1034D4000146D8B203F088F9404603F0A7F9014643
:1034E400304603F081F9404603F0A2F90634014660
:1034F400E0B2013503F078F93446C7E700EB800009
:103504000430C0B203F076F903F0B2F903F05AF9CB
:10351400022803D1BDE8F84F02F0CEBFBDE8F84F52
:1035240002F08CBFBDE8F84F02F08CB91D010020F9
:1035340050020020948A0008780200208E000020A7
:103544000B4B0C491A780C480132D2B2112A83BFB2
:1035540000221A700A781A7088BFC2F101021B781F
:1035640088BF0A700A78C05C192103F0B7B900BF9C
:103574007600002077000020948A0008F8B5104BEC
:103584001A781D46D2B10F4B1B787BB10E4F0F4EEC
:1035940000242421385D03F0B5F926F8140019201D
:1035A400013403F025FC122CF3D101E002F0E8F819
:1035B40001211820FFF7F8FE00232B70F8BD00BF8F
:1035C400F80000201D010020948A00085002002009
:1035D40008B5FFF7D3FF094B1B7853B1084A0948D4
:1035E400002330F8131022F813100133122BF8D1F2
:1035F40008BD0120BDE8084002F05AB91D010020B1
:103604008E0000205002002008B5054B187828B918
:1036140002F04EF9BDE8084003F08CBB08BD00BFC2
:103624001D010020074B1A680AB9074A1A606A4646
:103634001B68184490429DBF024A106018464FF020
:10364400FF307047E0010020D80C002038B519ABDA
:10365400224D23F05F4323F47F03214C2B60214B45
:103664002148236003F0D2F9208803F09FFA1F4811
:1036740003F0CCF91E4803F0C9F9206803F096FA68
:103684001C4803F0C3F90020FFF7CCFF03F08EFAC7
:10369400164803F0BBF9184803F0B8F9286803F09A
:1036A40085FA164803F0B2F9684603F07FFA0F482A
:1036B40003F0ACF9124803F0A9F90020ADF10A01B6
:1036C400FFF7B0FFFF23884202D200F8013BFAE77C
:1036D4000C48BDE8384003F099B900BFC801002088
:1036E400E4010020D80C00208C8400081687000810
:1036F400A9840008C5840008D7840008FF84000852
:103704000F8500082385000838B50020FFF78AFFDD
:1037140005461C4803F07AF9284603F047FA1A488C
:1037240003F074F9194B2C461868281A03F03EFA72
:10373400174803F06BF9ADF10A018C421BD315480D
:1037440003F064F9204603F063F90F4803F05EF9CF
:10375400114B1868001B03F029FA0D4803F056F9C1
:103764000E4803F053F9601B03F020FA0C48BDE83F
:10377400384003F04BB92378621CFF2BDFD1144689
:10378400DBE700BF3785000843850008E40100201B
:10379400168700084D850008C80100205B850008D5
:1037A400158700082DE9F74F304C314A002534F8CD
:1037B400023C52F825000092019394F800B094F86A
:1037C40001A094F8029094F803802779667903F0B5
:1037D4001DF9284803F01AF9274803F017F9019B4B
:1037E400013518B203F072F9244803F00FF92448A4
:1037F40003F00CF9584603F069F9204803F006F980
:10380400204803F003F9504603F060F91B4803F025
:10381400FDF81D4803F0FAF8484603F057F9174835
:1038240003F0F4F8194803F0F1F8404603F04EF9B8
:10383400124803F0EBF8164803F0E8F8384603F0B2
:1038440045F90E4803F0E2F8124803F0DFF8304679
:1038540003F03CF9104803F0D9F8062D04F10E04E6
:10386400009AA4D103B0BDE8F08F00BF240000206B
:1038740008000020888500088C8500089A850008C7
:103884009C850008A9850008B6850008C485000841
:10389400D3850008E0850008168700082DE9F0416B
:1038A400824CA3788BB3824803F0B0F8642003F011
:1038B4009FFA804803F0AAF8642003F099FA7E483E
:1038C40003F0A4F8642003F093FA7C4803F09EF814
:1038D400642003F08DFA7A4803F098F8642003F02A
:1038E40087FA784803F092F8642003F081FA764866
:1038F40003F08CF8642003F07BFA744803F086F834
:10390400642003F075FA0023A370714E0121304640
:1039140003F084FE01280146354640F0C580337823
:1039240003F0DF03522B03D104F048F9BDE8F08122
:103934004D2B02D1A070BDE8F081472B06D165481C
:1039440003F064F8FFF72EFFBDE8F081502B03D19C
:10395400FFF7DAFEBDE8F081412B15D15E4803F094
:1039640055F8642003F044FA5C4803F04FF86420EF
:1039740003F03EFA5A4803F049F8642003F038FA99
:1039840002F036FABDE8F081582B03D0432B53D014
:10399400BDE8F081304603F041FE3378232B16D185
:1039A4000024264601214A4803F038FE2B78232BB5
:1039B4000ED01CB91E44303E0124F3E70A2202FB58
:1039C400063601214248303E03F028FE00E000267E
:1039D4002B783F4C232B67D10121204603F01EFE98
:1039E40001212046257803F019FE2378232B5BD18F
:1039F4000121204603F012FE01212046277803F01E
:103A04000DFE2378232B4FD10121204603F006FE1F
:103A14000121204694F8008003F000FE2378232B34
:103A240042D1304802F0F2FF43463A462946304636
:103A3400BDE8F04102F0AEBA304603F0EFFD337852
:103A4400232B31D1002634460121214803F0E6FD21
:103A54002B78232B0FD0303B1EB92344DCB2012634
:103A6400F2E704EB840403EB44030121184803F058
:103A7400FF0403F0D3FD2B78154E232B14D1012121
:103A8400304603F0CBFD01213046357803F0C6FD06
:103A94003378232B08D1144802F0B8FF2946204676
:103AA400BDE8F04102F028B8BDE8F081EC01002047
:103AB400F08500082E8600083E8600085686000819
:103AC4008E860008AE860008C5860008D9860008E0
:103AD4007C040020188700084387000865870008D5
:103AE400BE870008F2870008158800082DE9F04F0A
:103AF40095B0FFF76DFDFF2420468DF8084002F0D5
:103B040084FC20468DF8094002F07FFC724F734E0E
:103B140002AC4FF000084FF002095FFA88F30193FA
:103B24009DF804300198A37003F0C4FCB7F9003089
:103B340009F1020A002B06DA0020E07003F0BAFC57
:103B44004FF0FF3504E00125E570284603F0B2FC90
:103B54003888ADB2684380B202F068FE14AB9A4470
:103B64000AF8480C38884FEA480A684380B202F0E1
:103B74005DFE03F09FFC388809F1050B684380B2B1
:103B840002F056FE60713888684380B202F050FE3D
:103B940003F090FC524B33F91830002B06DA002066
:103BA400A07103F087FC4FF0FF3504E00125A571F7
:103BB400284603F07FFC4A4BADB233F80A00684351
:103BC40080B202F033FE14AB9B44454B0BF8480C17
:103BD40033F80A0009F1080B684380B202F026FEAC
:103BE40003F068FC3E4B33F80A00684380B202F0ED
:103BF4001FFE3B4B207233F80A00684380B202F088
:103C040017FE03F057FCB6F90030002B06DA00204B
:103C1400607203F04FFC4FF0FF3504E0012565723C
:103C2400284603F047FC3088ADB2684380B202F006
:103C3400FDFD14AB9B440BF8480C308809F10A09CC
:103C4400684380B202F0F2FD03F034FC308868432C
:103C540080B202F0EDFDE0723088684380B202F079
:103C6400E7FD03F027FC1F4B398818F803300BB12C
:103C7400494289B21C4B18F803302BB1184B33F866
:103C84000A20524292B202E0154B33F80A20174B35
:103C940018F803301BB133885B429BB200E03388D1
:103CA4001BB212B209B20198FFF72CFBB9F13E0F17
:103CB40008F1010804F10A0407F1020706F10206FB
:103CC4007FF42BAF494602A802F058FE03F0F2FB42
:103CD40015B0BDE8F08F00BFB20000207C010020C9
:103CE400700100206484000800000020F4820008B1
:103CF40010B5062002F0EEFF1B4C1C4BC0F30F1056
:103D040018802378C3B940F26A72643880B2904252
:103D140028D9174AFF2182F848100121217015493A
:103D240053609360D360D36113625362D36353646B
:103D340013640B70137015E06F38B0F5EC6F02D29A
:103D4400002323700EE00B4A1378042B06D80133AA
:103D54004FF4FA612D20137003F00EF84FF4FA605B
:103D640003F046F8207810BD8E0100208801002061
:103D7400EC010020170100205C492DE9F041B1F964
:103D84000430192B16D1B1F90030192B12D1B1F925
:103D94000630192B0ED1B1F90230192B0AD1B1F921
:103DA4000830192B06D1B1F90A30A3F11902534294
:103DB400534100E000234E4A4E48137090F84820C7
:103DC4000646052A5CD890F84940A2422ED04A4DB6
:103DD4006BB105EB420415F812306478143B03EB25
:103DE400042380F8492021F81230BDE8F0814348CB
:103DF4006300C218567810F81420414802EB0622DA
:103E040020F81420EA18507815F8142002EB002248
:103E140021F814203B4A1344597812F814303A4AD2
:103E240003EB012322F81430BDE8F08190F85830F8
:103E3400002B59D1304C5300E51814F81260046D6E
:103E44006D78344404EB052421F812402B49CC1836
:103E540011F81250C16C6478294401EB0421284CF8
:103E640024F81210274CE11814F81240436D4978D5
:103E7400234403EB0123244921F81230BDE8F081E7
:103E84002BB196F84930FF2B2AD1BDE8F0811B4FA6
:103E9400DFF86CC0184D1B4CDFF86CE05A00B81802
:103EA40090F8018017F8130000EB08202CF8130099
:103EB400A81890F8018015F81300224400EB08209C
:103EC40021F81300507814F8132002EB00222EF886
:103ED40013200133DBB2062BE0D10C4A1370D0E778
:103EE400044BFF2283F84920BDE8F081BE00002086
:103EF400EB010020EC010020A68A0008708A00086B
:103F0400920100207C8A00089E010020C601002046
:103F14000B490C4B91F828201B7893420FD90A4B7C
:103F24000E2000FB023301F12A0203F10C0153F8C5
:103F3400040B8B4242F8040BF9D11B8813807047A1
:103F4400EC0100202000002022000020F8B540F6FB
:103F5400B73402F089FFA042FBD93D4802F056FD78
:103F64003C4802F053FD3C4802F050FD3B4B01221B
:103F74001A703B4B00243B481C7002F047FDFFF7CE
:103F840065FB01F085FDFFF74DFA0A2002F030FFD2
:103F9400354D2346DFF800E1344C354F3548364E75
:103FA4005A00A91891F801C015F8131001EB0C215F
:103FB4002EF81310A11891F801C014F8131002443C
:103FC40001EB0C2127F81310517810F8132002EBA1
:103FD400012226F813200133DBB2062BE0D1274A55
:103FE400274C1370FF2384F8483084F84930322377
:103FF40000252387012384F829306560A560E560E6
:10400400E5612562656225616561A56184F82850D2
:1040140084F8595084F85E50FFF77AFF194802F08B
:10402400F5FCFFF7BFFB184802F0F0FCFFF780F83F
:10403400154802F0EBFC154B96221A80144B1548D8
:1040440025701D7002F0E2FCBDE8F840FFF75CBB90
:104054000A86000842880008F38600080001002050
:10406400DC01002066880008708A0008A68A00081F
:10407400BE0000207C8A00089E010020C6010020AA
:10408400EC0100208688000816870008C40100207F
:104094008E010020A3880008920100202DE9F04140
:1040A400964B974C191891F8321093F82920954D96
:1040B400521A954992B291F800E0944E9449BEF197
:1040C400000F05D093F82D70FF0725D522BB15E00E
:1040D40012BB51F82070002FB8BF7F42022F0DDCB5
:1040E40054F82070002FB8BF7F42022F06DC55F829
:1040F4002070002FB8BF7F42022F0DDDB3F9383096
:1041040000225B4241F8202046F8203044F8202069
:1041140045F82020BDE8F08193F82D80B8F1020F16
:1041240003D1002A00F0E5802BE040F29B800FFAD7
:1041340082FCBCF1FF3F05D0704F97F82C70013F13
:10414400BC451ED1BEF1000F1BD0DA6B93F82F7063
:10415400524292FBF7F241F82020B3F9382093F849
:104164003110A2EB8202033192FBF1F246F82020D7
:104174005A6C1B6C524292FBF7F25B4244F82020CB
:1041840024E0012A07D093F82C700FFA82FCC7F1BF
:104194000107BC451DD1BEF1000F1AD093F82F7052
:1041A400DA6B92FBF7F241F82020B3F9382093F848
:1041B4003110A2EB8202033192FBF1F246F8202087
:1041C4005A6C1B6C92FBF7F244F8202093FBF7F334
:1041D4008BE0B8F1050F45D10FFA82FC1CF1020FF8
:1041E4001BD1BEF1000F1BD0DA6B022792FBF7F252
:1041F400524241F82020B3F9382092FBF7F25242A0
:1042040046F820205A6C1B6C92FBF7F293FBF7F3F1
:10421400524244F820205B4267E0BCF1020F05D013
:1042240093F82C70C7F10207BC451BD1BEF1000FF7
:1042340018D0DA6B022792FBF7F241F82020B3F989
:10424400382092FBF7F2524246F820205A6C1B6C3D
:1042540092FBF7F293FBF7F744F8202045F820701F
:10426400BDE8F08193F82E7012B2BA4207D0DFF89D
:104274008CE09EF82CE0CEEB0707BA4219D156F831
:104284002020002A15DADE6B022296FBF2F641F8B2
:104294002060596C1B6C91FBF2F193FBF2F345F82F
:1042A40020301A4B002244F8201043F82020BDE8A7
:1042B400F08193F83020DF6B97FBF2FE51F8207009
:1042C400CEEB070741F82070002146F82010596C06
:1042D4001B6C91FBF2F693FBF2F254F8201055F8A4
:1042E4002030891B44F820109B1A45F82030BDE883
:1042F400F081BEF1000F3FF446AF26E7EC01002049
:1043040050010020E00000208C0100203801002032
:104314002001002038B5244B24491B781BB9244ABA
:1043240092F85E3013B101230B701AE0D36B002BAB
:10433400B8BF5B42062B0EDC536C002BB8BF5B424C
:10434400062B08DC136C002BB8BF5B42062BD4BFD2
:104354000023012300E001230B7013B9D3635364DA
:104364001364144C0023254623702078052805D8AF
:10437400FFF794FE2B7801332B70F6E70C4B93F880
:10438400292093F82C100132D2B2914283F82920CB
:104394003CBF012283F8292093F85E301BB1044A04
:1043A400013B82F85E3038BD140100208C010020EE
:1043B400EC010020C60100201C4906220B6810B540
:1043C40093FBF2F30B601A496FF005040B6893FB3F
:1043D400F2F30B6017490B6893FBF2F30B60164B77
:1043E4001A68002ACCBFA2F5E16202F5E1621A6004
:1043F400124A116811F5E16FBCBF01F561611160EA
:104404000F49086810F5E16FBCBF00F561600860F2
:10441400186890FBF4F018600B6893FBF4F30B60DE
:104424001368062193FBF1F3136010BDD80100203B
:10443400BC010020C00100206C0100204C020020BF
:10444400D8000020002830B580F2908080B200F5BA
:104454006161404200B24FF4616390FBF3F3C3EB3C
:10446400031202EBC21203EB4203A1EB031318B2D3
:1044740083B2B3F5617F18D8052190FBF1F4C0F540
:10448400617090FBF1F0414B03EB4402557813F853
:1044940014203F4C02EB0522228003EB40025278A9
:1044A40013F8103003EB02235DE06FF461715A18C6
:1044B400B2F5617F13D2C0F5E163052193FBF1F3FB
:1044C400324AA0F5617002EB4304647812F81330A9
:1044D40090FBF1F003EB04232D4C23801AE06FF4DE
:1044E400E1629A18B2F5617F1DD2A0F5E16105245D
:1044F40091FBF4F1C0F528600C3090FBF4F0234AF2
:1045040002EB41035D7812F81130214903EB0523D6
:104514005B420B8002EB4003597812F8103003EB36
:1045240001235B421FE0A3F68D23B3F5617F2BD2F9
:10453400C0F56161052491FBF4F1A0F68C2090FB99
:10454400F4F0124A02EB41035D7812F8113010497D
:1045540003EB05235B420B8002EB4003597812F80E
:10456400103003EB01230B4A138030BD4FF4616319
:1045740090FBF3F3C3EB031202EBC21203EB42030F
:1045840000EB031000B273E730BD00BFFA820008ED
:104594001A010020E801002042F210730028BDBF78
:1045A400404200B2012100219842A8BF184642F2BD
:1045B400273283B2934210B51A4A06D84F2390FB90
:1045C400F3F0194B00B2185C1BE0A3F50C54283C23
:1045D400B4F5617F08D2A0F50C50134B283803EBD7
:1045E400E00090F872000CE0A3F51A532C3B642B06
:1045F4000ED8A0F51A500C4B2C3803EB600090F841
:10460400E3004FF41A7343430A2093FBF0F313803F
:1046140021B11388C3F5F54338331380B2F9000090
:1046240010BD00BF68010020428900084FF080439C
:10463400834201D99B08FBE700224BB1D118884281
:1046440022BF801A02EB4302C01A52089B08F4E707
:104654001046704738B501FB01F3054600FB0033F3
:1046640042F2107058430C46FFF7E0FF094B186004
:10467400094B6B4393FBF0F000B2FFF78DFF074A41
:10468400074B1288002CB8BF52421A80B3F90000BD
:1046940038BD00BF1001002040420F006801002017
:1046A400880000202DE9F0411746274A5D0054197F
:1046B400647812F8132047F6B72802EB0424234A3F
:1046C40024B2154412F813306D78214A03EB052502
:1046D400136821443B4413601E4A2DB213682844D6
:1046E4000B4413601C4A0CB2136805B20344214600
:1046F40028461360FFF7AEFF4FF4E166704390FB6A
:10470400F8F0164A963713683FB2034439462846F0
:104714001360FFF79FFF704390FBF8F0104AA0F579
:10472400617013683946184410602046FFF792FF01
:10473400704390FBF8F00B4AA0F5617013681844BD
:104744001060BDE8F08100BF188900080C890008DA
:10475400C0010020D8010020BC0100206C01002011
:104764004C020020D80000202DE9F04F85B09DF8C0
:104774003860DFF8FCA19B46744B750013F81640B3
:104784005F19DAF810300BEB8B0B23447C7803EBC6
:1047940004231844DAF8143084B21A446C4B1FFA18
:1047A40082F91D4413F81620DAF818306D78134492
:1047B40003EB05231944674BDAF81C001B6889B224
:1047C400184400B20391FFF73DFE6348DAF8243041
:1047D4000068624E624D184400B2B6F800802F881B
:1047E400FFF730FE2B88DAF8200001935D4B328806
:1047F4001B68029200EB030E0EEB4B0000B2FFF7B6
:1048040021FE42F2107303994FF0640CB5F90000D5
:104814000DB20CFB05F5BDF904A00FFA89F924B219
:104824000CFB04F40CFB09F205FB0AF900FB04FE83
:1048340099FBF3F99EFBF3FEB6F900B001920BFB72
:1048440009F9029A484916B299FBF1F20AFB0EF9EA
:1048540099FBF3F99144019A3FB2724392FBF3F24C
:104864004A44A21A92FBFCF2DFF808910FFA88F886
:10487400C9F80020019A07FB04F902FB0AFA9AFB23
:10488400F3F206FB0EFA99FBF3F99AFBF3FA684389
:1048940008FB0AFA0BFB09F9029290FBF3F099FB6F
:1048A400F3F99AFBF3F209EB020A00FB07F292FB1D
:1048B400F3F20AEB02090BFB05F292FBF3F27243EB
:1048C40092FBF3F208FB02F292FBF1F202EB090A0B
:1048D400029A0BFB04F402FB08F999FBF1F90AEBC9
:1048E4000902AA1A7D4395FBF3F507FB0EFE0BFBA9
:1048F40005FB94FBF3F49EFBF3FE92FBFCF29BFBA3
:10490400F3FBDFF8749006FB0EFE08FB04F4C9F811
:10491400002000FB08F0029A06FB0BF6574394FBB9
:10492400F3F49EFBF1F190FBF3F096FBF3F697FBA7
:10493400F3F32144014431441944019B591A91FB76
:10494400FCF10A4B196005B0BDE8F08F0C89000832
:1049540018890008D80000204C0200201A01002009
:10496400E80100206C010020F0D8FFFFB401002012
:10497400EC010020B0010020B80100202DE9F74F20
:104984001C4640F6454A0F461146FFF763FE494A66
:10499400B42502EB4403597812F81430464ADFF880
:1049A4004881B2F9002003EB01236A4392FBFAF237
:1049B400D8F80010642691FBF6F142F2107B134400
:1049C4003E4A9BB222F814303D4ADFF8209122F887
:1049D40014303C4B38461B5DC91A09B2FFF73AFE46
:1049E40019F804C0D8F800700CFB0CF1DFF8008152
:1049F40007FB07F218F804E001900EFB1E1EC82105
:104A040079430CFB01F191FBFBF10BFB0E2E9EFB9A
:104A1400F1F000B20092FFF7BFFD019B6FF0B3010C
:104A2400184401FB00F393FBFAF3274903F2EE2346
:104A34009BB221F81430254919F8040021F81430E8
:104A440018F80430009A03FB03F100FB0011400046
:104A54000BFB01FB5843C2EB0B0292FBF0F000B2DC
:104A6400FFF79AFD1A4B19F80420B3F900305D439F
:104A740095FBFAF5174BA5F20E65ADB223F8145069
:104A8400154B23F8145018F804301A44A2F11E03ED
:104A94009BB273439F4203D2104B01221A7006E06B
:104AA4005643B74234BF0E4A0E4A0123137003B073
:104AB400BDE8F08F3089000888000020B200002093
:104AC40002010020BE8A000870010020CC010020F1
:104AD400680100207C010020CA000020EA010020B7
:104AE4000E010020D6000020100100206A84000876
:104AF4003C8900082DE9F04FDFF8E8C0DFF8E880D2
:104B0400DFF8E890314FDFF8E8E0314E314C324DB8
:104B140000235A0009EB020090F801A019F81300D1
:104B240008EB020100EB0A203CF913A000B2504547
:104B3400B8BF504691F801B018F8131001EB0B2BD5
:104B44000FFA8BFB5845A8BF58462CF813000EEB00
:104B5400020090F801A01EF81300B91800EB0A2017
:104B640036F913A000B25045B8BF504691F801B0D1
:104B740017F8131001EB0B2B0FFA8BFB5845A8BF4A
:104B84005846A1182A4426F81300507815F8132023
:104B940091F801A002EB0020104A00B232F9132070
:104BA40014F813108242B8BF024601EB0A2109B27D
:104BB4008A42A8BF0A46094921F813200133DBB20F
:104BC400062BA6D1064A1370BDE8F08F648A00084C
:104BD4007001002000890008B28A00087C010020CE
:104BE400C6010020B2000020888A00082489000839
:104BF400588A0008031F994207DA0B1A93FBF2F252
:104C0400002AB8BF5242501809E0031D994207DD3B
:104C14000B1A93FBF2F2002AB8BF5242881A80B2F0
:104C240000B2704708B5094B18884FF6FF739842D5
:104C34000BD1074BB3F90000064BB3F900305B43CB
:104C440000FB0030FFF7F2FC80B208BD78000020C2
:104C5400920100209E010020B5282DE9F041044670
:104C640004D833288CBF0446342400E0B524164B02
:104C74001A88A24226D0154E154FDFF868801C8092
:104C8400002573195878AB5D03EB002000B2FFF7E1
:104C9400D9FB42F21072B8F90030634393FBF2F38C
:104CA400EB530C4B0C4AB3F90030634393FBF2F320
:104CB4000A4AAB5202350C2DE3D1094B93F82C2050
:104CC40083F85E20BDE8F081780000203089000878
:104CD400920100201A010020F0D8FFFF9E0100205D
:104CE400EC010020E8010020084B9A686932A4BF57
:104CF4006FF069029A60064B1A782AB100224FF6C7
:104D040093701A70FFF7A8BF704700BFEC01002032
:104D1400150100202DE9F04F85B0FEF7C3FAA94C28
:104D24000028237840F33B8213B90123237000E069
:104D34000023A54E019396F90030DFF8B492002BBE
:104D4400DFF8B0A222DA99F90030002B1EDB9AF8C2
:104D540000300133DBB2032B8AF800300AD9002378
:104D64004FF4FA6132208AF8003002F005F840F678
:104D7400B83101E04FF4FA61322001F0FDFF9AF8F6
:104D84000030032B1CBFFF2384F8483033781F07FF
:104D94001AD599F800301D0716D494F85930002B11
:104DA4000CBF0123002384F8593003D140F2DC51B5
:104DB400FA2007E04FF4FA61642001F0DDFF4FF4BC
:104DC4007A61322001F0D8FF3378804A13F0100F53
:104DD40013D099F8001001F0100101F0FF0061B93F
:104DE400B2F900100029DCBF232111807849C8BF23
:104DF40010800020087001210191764903F02003FE
:104E040091F900707449DFF8F0B191F9005003F0A2
:104E1400FF01002B53D0714B192193F9003093FB00
:104E2400F1F313F0FF030ED0B2F900105BB20B44A0
:104E3400002B04DD962BA8BF96239BB200E0002331
:104E4400138001230193082395FBF3F5ABB202937E
:104E54009BF9003010224FF00A0893FBF2F397FB02
:104E6400F8F7002B1FFA87F80DDAB4F85C205548E0
:104E740002B39BB2594289B28A428CBF9B18002369
:104E8400A0F85C300FE015DDB4F85C104D4AB1F5C4
:104E9400FA6F0FD20B449BB2B3F5FA6F88BF4FF48D
:104EA400FA63A2F85C30B4F85C10322001F57A7130
:104EB40001F062FF00258BF800502F4601E0884680
:104EC40002919AF80030002B40F0AF803378D80775
:104ED40036D599F80030D90732D4E36B394A053313
:104EE4000A2B2DD8536C05330A2B29D8136C002BAD
:104EF400DABF6FF0010253435B00052BCCBF0023E4
:104F04000123EBB194F82830354A01331278DBB22F
:104F14009A4284F828304FF4FA614FF0320002D9F3
:104F240001F02AFF0AE001F027FF40F6CA0132200F
:104F340001F022FF234B002283F82820FEF7E8FF2C
:104F440033785A0618D599F800305B0614D44FF418
:104F5400FA61322001F010FF224A13780133DBB2E8
:104F640003F00301117098071F4903F001024CBFBD
:104F7400502332230A702387337813F0020F1B4B1C
:104F840017D099F8002002F0020202F0FF0182B962
:104F94001A7832200132D2B2012A94BF1A701970E1
:104FA4001978FA22514301F5FA61039301F0E4FE02
:104FB400039B1B7813B3012B2BD1084B93F90030BF
:104FC4001FE000BFEC0100208F01002074020020CC
:104FD400760200200F010020180100201E0100208D
:104FE40020000020DE0000208B0100201C01002096
:104FF4008A01002016010020900100207B42E36317
:105004006B4263649BF90030042293FBF2F35B422E
:1050140023646C4B1B7843B9E26B636C022192FBF3
:10502400F1F293FBF1F3E26363649AF80010664BC8
:10503400002201291A8027D14FF0030A7800B4F91D
:105044000410042290FBFAF00393FFF7D3FD606091
:105054006800B4F90C10042290FBFAF0FFF7CAFDC3
:105064005A4AE06092F90000B4F92010042240008A
:10507400FFF7C0FD564A022192F90020206292FBFC
:10508400F1F2039B52420DE002290DD19BF900205D
:10509400E561520022624E4A676292F9002092FB57
:1050A400F1F252421A8037E0032935D13378D90717
:1050B40013D599F800A01AF0010A0ED14FF4FA6141
:1050C400322001F059FE94F84830424A042B9ABF2A
:1050D400013382F8483082F848A03D4B032293F90B
:1050E4000030DFF8F0A093FBF2F3143B2365337830
:1050F400E7645A0665650FD599F800305B060BD452
:105104004FF4FA61322001F037FE9AF85830B3FABE
:1051140083F35B098AF85830002DB8BF6D42002F25
:10512400B8BF7F42BD42B8BF3D46284B93F90070DB
:10513400294B002FB8BF7F42BD42B8BF3D46B3F9EB
:105144000020214BC5F18005B3F9003084F85A5092
:10515400134423EAE373A360B8F1000F01D1029B67
:1051640073B194F85E305BB9B8F1000F02D01B4BF9
:1051740001221A70FFF756FD404480B2FFF76CFD20
:10518400019B23B1154B1B780BB9FFF7ADFD3378A9
:1051940089F8003001F068FE114B18600EE06BB125
:1051A40001F062FE0E4B1B68C01A40F2E2439842C3
:1051B40004D905B0BDE8F04FFEF756B805B0BDE818
:1051C400F08F00BF8B010020DC0000209001002044
:1051D4001E010020EC010020740200207602002051
:1051E400FC0000202DE9F04F85B002F021F9FEF714
:1051F400ADFEBC4DBC4C01F037FEBC4B1860FEF755
:1052040003FAFEF775FDBA4B1B780BB9FFF782FD65
:10521400FEF7B2FDFEF7F8F9FFF77CF8FEF7F4F9B4
:10522400B44A00231360B44A1360B44A1360B44A06
:105234001360B44A1360B44A136095F85920002AE5
:105244005DD0B24EB24F23702378022B27D8FEF7DD
:10525400DBF92378DFF8CCE206EB430216F81310EF
:10526400527837F9130001EB0222AA4912B251F81D
:105274002380A949821A31F913C0A848A84930F9F2
:10528400130051F823105EF823E042446144C0EB5C
:105294000E00FFF707FA237801332370D4E7924A0C
:1052A40003239A4E9A4F13702378052B25D8FEF7C3
:1052B400ABF9237806EB430216F81310527837F94A
:1052C400130001EB0222934912B251F82380821A8F
:1052D4009149924831F913C030F913E0904991484B
:1052E40051F8231050F82300424461447044FFF7FE
:1052F400D9F9237801332370D6E7FFF75DF88A4A9A
:1053040000231370894A1370894A13702370237819
:10531400022B6FD8FEF778F9DFF8E091A968D9F885
:1053240000002278C0EB010E79497A4F31F812104F
:10533400DFF8C4B18E4457F82210DBF800008E4425
:10534400E968DFF8DCA1091A7348DFF8A88130F8AE
:105354001260784B31445AF8226068683144D8F8B6
:10536400006033F92230801B6E4E039356F82230CE
:1053740009B21844694B33F812C00092CCEB000018
:105384000FFA8EF2039B00B2FFF7EEF96A4AE9685E
:105394001068DBF80020237802448A1A5E4956F824
:1053A400236031F813100A445AF823100A4463495D
:1053B40012B20868D9F800100144A868411A544888
:1053C40030F81300014457F823006F6801445C4827
:1053D40009B2D0F800E0D8F800007044C01B4F4F69
:1053E40037F813703844801B00B2FFF7C7FA2378EC
:1053F40001338BE73C4A032313702378394E052B82
:1054040000F2A080FEF700F9DFF8F090A968D9F85F
:1054140000002278C0EB010E3D49DFF8F88031F836
:105424001210DFF8D4B08E4458F82210DBF80000D4
:105434008E44E968DFF8E8A0C0EB010C36492D4F33
:1054440031F812606868B4445AF82260394B0CEBA6
:1054540006013E6833F922303044304E039336F867
:10546400126009B2301A2F4E56F8223000921844B6
:105474000FFA8EF2039B00B2FFF776F92E4AE96821
:105484001068DBF80020237802448A1A224956F86F
:10549400236031F813100A445AF823100A442749A8
:1054A40012B20868D9F800100144A868411A1848D3
:1054B40030F81300014458F823000144204809B28D
:1054C400D0F800E038686F687044381A134F37F822
:1054D40013703844304400B2FFF750FA2378013394
:1054E40023708AE7EC010020C6010020AC010020F3
:1054F4008E010020BC010020D8010020C001002042
:10550400D80000206C0100204C020020A68A00086C
:10551400BE000020380100209E01002092010020DE
:105524005001002020010020EA0100200E0100208B
:10553400D6000020E0000020B8010020B4010020C3
:10554400B0010020FFF7D6FA32787378604F002A52
:1055540000F0888073B94FF4FA611E2001F00CFC4E
:1055640040F6CA01502001F007FC40F6C411642043
:1055740001F002FCF36B83EAE372A2EBE372062A06
:105584000FDC6B6C83EAE372A2EBE372062A08DC9D
:105594002B6C002BDABF6FF0010253435B00062B28
:1055A40010DD728DB6F85C30134496F85A2003EB84
:1055B400420396F859209BB23B803AB1444A643383
:1055C400138003E0B6F85C30C8333B80FEF71CF868
:1055D400FEF78CFA3F4A002313701A463E48DFF860
:1055E40010E1DFF810C1062B1DD050F82310023152
:1055F40004290DD85EF823100231042908D85CF878
:10560400231003F10108023104295FFA88F807D94D
:105614000AB1304A137096F82D30304A013304E051
:1056240043460122DFE70AB12A4A13702B4A137852
:105634001BB93888FDF70EFF42E0013BDBB2137063
:105644000033274A18BF01231370264BB3F8008098
:10565400254B1B689844FDF7D7FF01F005FC8045F6
:10566400F9D8E6E753B9214B1B783BB1FDF768FF46
:10567400FEF714F9142001F0BBFB21E04FF416737C
:105684003B80FEF733FA3888FDF7E4FE40F6C41198
:10569400642001F071FB40F6CA01502001F06CFB5C
:1056A4004FF4FA613C2001F067FB01F0DDFB00F5EB
:1056B4001678FDF7A9FF01F0D7FB8045F9D8D5E7A7
:1056C400084B3A881A80337803B101236B7092E552
:1056D400C4010020C6010020200100208A0000200F
:1056E400140100208C000020AC010020EB010020FC
:1056F40050010020E00000207047FEE7FEE7FEE7CF
:10570400FEE770477047704701F0B4BB70477047BD
:1057140070477047704770477047704770477047CD
:1057240070477047704770477047704770477047BD
:1057340070477047704701F009BC70477047704765
:105744007047704770477047704702F069B87047F8
:1057540001F02EBF7047704770477047704770471D
:10576400704770477047704770477047704701F043
:1057740077BF7047704770477047704770470000A5
:10578400F8B5094D094E0A4F00242B689C420ADAE9
:105794002421305D01F0B6F847F82400052001F01B
:1057A40027FB0134F1E7F8BD780200207D020020D8
:1057B400900200202DE9F843FE2001F009F883202F
:1057C40001F00CF81E21002001F00EF80221012046
:1057D40001F00AF8184FDFF86480DFF864900224BF
:1057E4000025386885421BDA58F8256019F8051039
:1057F4002046B6B200F0F8FF304601F017F8631CFB
:105804000146D8B200F0F0FF304601F011F8A31CB5
:1058140001460334D8B2013500F0E6FFE4B2E0E714
:1058240000EB40000430C0B200F0E4FF01F020F8C7
:10583400BDE8F84300F0C6BF7802002090020020C3
:105844007D020020F8B5134D134E2C78134F90FBB6
:10585400F4F0441C01F008FB2B7800211844104B91
:105864001860104B10481D68A9420EDA57F8213011
:1058740056F821209A428CBFD31A9B1AB3FBF4F337
:10588400013340F821300131EEE7084B01221A7050
:10589400F8BD00BF7C0200202803002090020020F5
:1058A4007003002078020020DC0200202403002082
:1058B4002DE9F041284D2B78002B49D0274B284E59
:1058C4001C681F4658B901F0CFFA33680A3B984266
:1058D40005D201F0C9FA3368C01ABDE8F08101F0BD
:1058E400C3FA33689842FAD301F0BEFA1D4BD7F8D5
:1058F40000C01B781C4A1844194BDFF874801B4FF6
:105904001860002161451ADA58F8216052F8043F02
:105914004FEA810EF01A002805D057F80EE006DD94
:10592400704502DA1660013C07E0734404E040422B
:105934007045F7DBCEEB030313600131E2E7002C83
:10594400DCBF00232B70FFF735FF0020BDE8F0819A
:105954001846BDE8F08100BF24030020780200202F
:10596400700300207C0200208C020020DC02002056
:1059740028030020084B30B5084C1A6800239342D2
:1059840008DA1D5D854203D1054A42F8231030BD73
:105994000133F4E730BD00BF780200207D0200200F
:1059A4002803002070B50E46C5B2044603212846DC
:1059B40000F072FF002E51D084423ED1284801F0FD
:1059C40025F8204601F024F8264801F01FF80021AC
:1059D400284600F097FF044600F0F4FE830701D444
:1059E40001F09CF8204601F013F80C2C01D11E485C
:1059F40017E0122C01D11D4813E00D2C01D11C48D5
:105A04000FE0D42C01D11B480BE044F20B339C4231
:105A140001D1194805E01D2C01D1184801E014B941
:105A2400174800F0F3FF0F4800F0F0FF022128466A
:105A340000F032FF00F0ECFF0BE0124800F0E6FF4C
:105A4400204600F0E5FF074800F0E0FF0E4800F0B4
:105A5400DDFFBDE870400D4800F0D8BF70BD00BF49
:105A6400C48A0008C68A0008C98A0008D28A0008C5
:105A7400DB8A0008E48A0008EE8A0008F88A000835
:105A8400018B0008108B00081A8B00080C8B00088F
:105A940000212DE9F0410846FFF784FFDFF8548028
:105AA4000F4F104E0024651C01212846FFF77AFF92
:105AB4004FF40073122D04F8085047F8243046F8C8
:105AC40024302C46EFD1084B21221A70074B0022B8
:105AD4001A7001F0C9F9064B1860BDE8F08100BFE7
:105AE40090020020280300207C02002024030020D0
:105AF400700300207D02002070B5C0B20D4600F096
:105B040067FE022000F06AFE0021084600F06CFEE9
:105B14003121012000F068FE042000F06BFE00F04B
:105B2400A7FE00F04FFE00F0F9FF05F0DB03412B68
:105B3400C6B240F00481002E00F01081894C8A48DE
:105B440000F064FF894800F061FFA179607900F0FA
:105B540069FE00F091FF864800F058FFE07900F0FC
:105B6400B5FF844800F052FF207A00F0AFFF82486E
:105B740000F04CFF607A00F0A9FF804800F046FF77
:105B8400A07A00F0A3FF7E4800F040FF217BE07A7A
:105B940000F048FE00F070FF7A4800F037FFA17B68
:105BA400607B00F03FFE00F067FF774800F02EFFB7
:105BB400207C00F08BFF754800F028FFA07C00F0EB
:105BC40085FF734800F022FF607C00F07FFF71487E
:105BD40000F01CFF217DE07C00F024FE00F04CFF6F
:105BE4006D4800F013FF607D00F070FF6B4800F01B
:105BF4000DFFA07D00F06AFF694800F007FFE07D1B
:105C040000F064FF674800F001FF722D02D0522DAE
:105C140040F09C80534C644800F0F8FE634800F068
:105C2400F5FE607F00F052FF614800F0EFFEA07FB8
:105C340000F04CFF5F4800F0E9FEE07F00F046FF13
:105C44005D4800F0E3FE94F8200000F03FFF5B485D
:105C540000F0DCFE94F8210000F038FF584800F012
:105C6400D5FE94F8220000F031FF564800F0CEFE35
:105C740094F8241094F8230000F0D4FD00F0FCFE06
:105C8400514800F0C3FE94F8261094F8250000F063
:105C9400C9FD00F0F1FE4D4800F0B8FE94F828105C
:105CA40094F8270000F0BEFD00F0E6FE484800F03E
:105CB400ADFE94F82A1094F8290000F0B3FD00F02A
:105CC400DBFE444800F0A2FE94F82C1094F82B005C
:105CD40000F0A8FD00F0D0FE3F4800F097FE94F8D5
:105CE4002E1094F82D0000F09DFD00F0C5FE3B48F9
:105CF40000F08CFE94F82F0000F0E8FE384800F025
:105D040085FE94F8300000F0E1FE364800F07EFE97
:105D140094F8310000F0DAFE334800F077FE94F88E
:105D2400330000F0D3FE314800F070FE94F83400E4
:105D340000F0CCFEBDE870401A4800F067BE722D3A
:105D440008D0522D02D105E0522D0AD005F0DF050E
:105D5400412D06D1002E7FF45DAF70BD722DF3D1BD
:105D640070BD70BD88030020248B00082F8B0008B1
:105D7400378B0008438B0008498B0008518B0008BF
:105D8400608B0008708B0008818B00088F8B0008E3
:105D94009D8B0008AB8B0008B88B0008CD8B0008E6
:105DA400D98B0008EA8B0008EE8B0008F68B0008FC
:105DB400068C00080D8C0008198C0008268C00083D
:105DC400318C00083D8C00084D8C00085C8C000868
:105DD4006B8C00087E8C00088E8C00089D8C00085B
:105DE400A88C0008B08C0008C58C0008CF8C000873
:105DF40008B5174800F00AFE164800F007FE1648DA
:105E040000F004FE154800F001FE154800F0FEFD08
:105E1400144800F0FBFD144800F0F8FD134800F0AE
:105E2400F5FD134800F0F2FD124800F0EFFD1248B2
:105E340000F0ECFD114800F0E9FD114800F0E6FD2A
:105E4400104800F0E3FDBDE808400F4800F0DEBD57
:105E5400D78C0008E18C0008008D00081E8D000816
:105E64003E8D0008508D0008678D0008828D000863
:105E74009C8D0008B48D0008CC8D0008ED8D0008C1
:105E84000F8E00083C8E00086A8E00082DE9F0474A
:105E94000024A0462746A246A1461F4D1F4E2C7043
:105EA40001211E4801F0BAFB3378232B2FD0BAF11D
:105EB400000F08D1A3F1300209EB02031FFA83F9A2
:105EC4004FF0010AECE74FB909EB8909A3F130025D
:105ED40002EB49031FFA83F90127F1E7B8F1000F38
:105EE4000AD109EB8909A3F1300202EB49031FFA35
:105EF40083F94FF00108E3E7002CE1D109EB8909AC
:105F0400303B03EB49031FFA83F90124D8E701234B
:105F14002B704846BDE8F087D80200207C0400209E
:105F24002DE9F8430027B846B9463C46174D184EAC
:105F34002F700121164801F071FB3378232B20D0F8
:105F4400B9F1000F05D1303B1C44E4B24FF0010914
:105F5400EFE7B8F1000F09D104EB8404303B03EB05
:105F6400440404F0FF044FF00108EFE7002FEDD1E3
:105F740004EB8404303B03EB440404F0FF040127E6
:105F8400E4E701232B702046BDE8F883D802002003
:105F94007C040020522910B504464FD1312A3CD14B
:105FA400492B5FD0542B04D1A74800F02FFD2B219F
:105FB40095E0522B7CD0532B00F08D80512B04D1D3
:105FC400A24800F023FD182189E0572B04D1A048F2
:105FD40000F01CFD1A2182E0582B00F09C80592B04
:105FE40009D19C4800F012FD1C21204600F054FC0D
:105FF40000F06CFDF9E05A2B00F0A480412B04D191
:10600400954800F003FD1121EFE7422B40F01B817E
:10601400924800F0FBFC1221E7E7322A40F013819A
:106024004D2B00F0A380512B00F0B280502B00F0D8
:10603400C180472B40F007818948CEE0572940F0C2
:106044000281312A40F08380492B10D1FFF768FF89
:10605400844B02461B78002B00F0F5800321204678
:1060640000F03CFC804800F0D1FC032137E0542BC5
:1060740010D1FFF755FF7B4B02461B78002B00F035
:10608400E2800B21204600F029FC784800F0BEFC99
:106094000B2124E0522B10D1FFF742FF714B024633
:1060A4001B78002B00F0CF800521204600F016FC61
:1060B4006F4800F0ABFC052111E0532B18D1FFF71A
:1060C4002FFF684B02461B78002B00F0BC80102188
:1060D400204600F003FC674800F098FC102120469D
:1060E40000F0DAFB00F0F2FC634800F08FFC10BD16
:1060F400512B7FD0572B00F08C80582B10D1FFF7F9
:106104000FFF584B02461B78002B00F09C801B218C
:10611400204600F0E3FB594800F078FC1B2164E7BB
:10612400592B00F085805A2B40F08D80FFF7F8FE44
:106134004C4B02461B78002B00F085801D21204625
:1061440000F0CCFB4E4800F061FC1D214DE7322AE3
:1061540079D14D2B0FD1FFF799FE424B02461B78A4
:10616400002B70D02021204600F0F2FB454800F0BF
:106174004DFC202134E0512B0FD1FFF787FE394B22
:1061840002461B78002B5ED00E21204600F0E0FB77
:106194003D4800F03BFC0E2122E0502B0FD1FFF7CD
:1061A40075FE304B02461B78002B4CD03021204624
:1061B40000F0CEFB354800F029FC302110E0472BDD
:1061C40041D1FFF763FE274B02461B78002B3AD0E0
:1061D40020461E2100F0BCFB2D4800F017FC1E21B8
:1061E400204600F08FFB00F047FCBDE81040224839
:1061F40000F00CBCFFF794FE1A4B02461B7813B355
:106204001821204600F06AFB104800F0FFFB18211B
:10621400EBE6FFF785FE134B02461B789BB11A2170
:10622400204600F05BFB0A4800F0F0FB1A21DCE694
:10623400FFF776FE0B4B02461B7823B11C21204648
:1062440000F04CFBCDE610BD848E0008C48E00081F
:10625400D58E0008ED8E0008038F00080F8F00080C
:10626400448F0008D80200207F8E0008548F000855
:106274009A8E0008AE8E000816870008D48E000897
:10628400EC8E0008208F00082F8F00083C8F000838
:10629400708F0008F8B53A4D2878C0B201286DD047
:1062A400384C2378082B09D83748C3F1090118441E
:1062B400C9B201F051F92378184420702678012ED0
:1062C4002BD9314900220F4606F1FF3E11F8010B8C
:1062D400D3B2FF2804D1964502DD0878552806D0AC
:1062E4000132D0B201338642DBB2EFD800E0A3B171
:1062F4009E4206D1BB1913F8013CFF2B0AD1721E32
:10630400D3B21A46B24206D2B85CD11A01327854DA
:10631400D2B2F7E73346F31A23702378092B2BD133
:10632400194B1A78FF2A24D15A78552A21D1987802
:10633400164AD9781070164A93F804E01170154A79
:106344005E7982F800E0144A144F16709A79764404
:1063540030443A7093F807C0114F01440A4487F857
:1063640000C0D2B21F7AC2F1FF02974204BF0122D9
:106374002A7000221A7022702878C0B2F8BD00BFBB
:106384008203002074030020750300207F03002093
:106394007E03002080030020840300208303002068
:1063A40081030020014B1878704700BF830300204D
:1063B400014B00201870704782030020024B1878AC
:1063C400803840B2704700BF80030020024B187829
:1063D400803840B2704700BF84030020024B187815
:1063E400803840B2704700BF7F030020024B18780A
:1063F400803840B2704700BF7E03002008B501F02A
:106404002DF8003018BF012008BD0A2810B5044635
:1064140003D10D2001F04EF8204601F04BF8204640
:1064240010BD38B505460446601B14F8013B1BB18A
:106434001846FFF7EAFFF7E738BD000010B5044639
:10644400600702D51448FFF7ECFF210702D5134873
:10645400FFF7E7FFE20602D51148FFF7E2FFA306C4
:1064640002D51048FFF7DDFF600602D50E48FFF79E
:10647400D8FFA10502D50D48FFF7D3FF620502D569
:106484000B48FFF7CEFFE30404D5BDE810400948EC
:10649400FFF7C7BF10BD00BF808F0008B28F000890
:1064A400E68F0008139000083C9000087B900008D9
:1064B400A9900008D590000808B5012000F0A0F9C3
:1064C400012802D11A48FFF7ACFF022000F098F926
:1064D400012802D11748FFF7A4FF042000F090F927
:1064E400012802D11448FFF79CFF082000F088F926
:1064F400012802D11148FFF794FF102000F080F921
:10650400012802D10E48FFF78CFF202000F078F913
:10651400012802D10B48FFF784FF402000F070F9F6
:10652400012804D1BDE808400748FFF77ABF08BD39
:10653400099100082091000835910008479100084E
:106544005D9100086F9100088191000808B501F081
:10655400B9F830B1034B02221A80034B00221A709F
:10656400012008BD7A00002086030020F8B53049D8
:106574000B780E46012B59D02E4F0123FA780B705D
:106584002D4B0020A22A18801D463C4604D91A88A7
:1065940092B242F010020DE03F7907F1FF3EBEF1E6
:1065A400050F0AD9832F08D00E2F06D01A8892B26D
:1065B40042F020021A800870F8BDFF2300202370E7
:1065C40063700346C1B28A4200F1010004DB214436
:1065D40089780B44DBB2F5E7DB432244D3702B8884
:1065E40023F4657323F00303DB04DB0C0BB101F02C
:1065F40095F8E4780F4F0434E4B22146384601F0AC
:10660400A5F8844207D02B889BB243F004032B8067
:1066140000233370F8BD3B79022B09BFB8790620FB
:106624000630C0B201F0F0F801232B80F8BD00BFA2
:1066340086030020D80300207A0000202DE9F047CB
:106644005A4B1A781E46002A00F0AD8001221A70B7
:10665400574A584D91789046FE2905D102222A8046
:1066640000221A70BDE8F0872B88534F13F0010FF6
:1066740018BF0023DFF848A11EBF3B7006238AF829
:10668400003038789AF800104C4C091AC9B22044EA
:1066940001F086F83B7818449AF80030C0B283427F
:1066A400387007D83A780021501EA2F1020EDFF8A4
:1066B4000CC114E001F0ACF80128F3D13E4B1B7877
:1066C40013B94FF480636BE04FF4006368E014F88F
:1066D4000390B9F1FF0F06D0734510D00131CBB24E
:1066E4008342F4DB06E00CEB030999F80190B9F15D
:1066F400FF0FF1D1A3B1D21A0020234405E014F80E
:106704000090B9F1FF0FE9D1F4E7C1B2914200F171
:10671400010004DA13F801E004F801E0F5E73A7047
:106724003B789AF80020DFF890909A42244F1FD8C3
:1067340098F80210A2782148914201D048232FE012
:10674400C1780431C9B28B42397003D30020E27896
:10675400034612E0C91A1844C9B201F021F899F8A5
:10676400003018443B78C0B2834289F80000EDD968
:106774004FF400732B80BDE8F087C1B2914200F161
:10678400010004DC214489780B44DBB2F5E7DB43E8
:106794001444E278DBB29A4214BF41F208030223A4
:1067A4002B8000233370BDE8F08700BF86030020F0
:1067B400D80300207A0000208503002088030020ED
:1067C40087030020014B188880B270477A000020AC
:1067D400014B9870704700BFD8030020014B18711B
:1067E400704700BFD8030020014B18444171704723
:1067F400D8030020014BD870704700BFD803002095
:10680400064B1B881B0706D4054B1B79184214BF83
:106814000120002070478020704700BF7A000020CC
:106824008803002000EB012080B27047C0B270479B
:10683400000A704710B50D4AD17810464B1E4E2BF6
:106844004FF0000302D803311C4606E01370537066
:106854009370D3701371537110BDDAB2914203F186
:10686400010301DB8454F8E710BD00BF8803002056
:1068740010B5FFF77BFE074B1A881C4612F0010F78
:1068840006D0FFF7D7FFFFF7D9FE23889B05FAD47C
:1068940010BD00BF7A00002010B50C4A137803F035
:1068A400FF04002BFAD10A4B02221A7101229A71B9
:1068B400042298705971DA70FFF7DAFF054B1B88D0
:1068C4001B075CBF044B5C79204610BD8603002087
:1068D400D80300207A0000208803002010B4074C5D
:1068E4002378002BFCD1064B98709A710320042264
:1068F40018715971DA7010BCFFF7BABF8603002013
:10690400D803002010B50E4A137803F0FF04002BBF
:10691400FAD10C4B02221A719A710422987059719F
:10692400DA70FFF7A5FF084B1B881B075FBF074BF7
:1069340098795B7903EB002054BF80B2204610BDE8
:1069440086030020D80300207A000020880300205A
:1069540010B4084C2378002BFCD1074B9A71120A0F
:106964009870DA710320052218715971DA7010BC1D
:10697400FFF77EBF86030020D803002010B5821CD9
:106984000023141AA14203DD12F8014B2344F8E753
:10699400D843C0B210BD000008B500F00BFE38B1FA
:1069A400044A00231370044A01201380034A13701D
:1069B40008BD00BF790400207A0400207804002078
:1069C400014608B5044801F03CFC4021024801F0AE
:1069D40040FC0028F9D008BD005000400A2810B53A
:1069E400044603D10D20FFF7EBFF2046FFF7E8FF35
:1069F400204610BD38B505460446601B14F8013B1B
:106A04001BB11846FFF7EAFFF7E738BDFFF7F2BFFF
:106A140030B5184985B00446002301A80A25B4FB03
:106A2400F1F201FB124402F00F0230321A54013326
:106A34000A2BB1FBF5F1F2D104A9002201F8022DD1
:106A44009DF80420302A0AD0013B13F0FF03F7D14C
:106A5400FFF7D0FF0A2000F0CBF905B030BD0246A5
:106A640012F8014F02F8014C002CEDD08A42F7D104
:106A7400EAE700BF00CA9A3B2DE9F041002705462A
:106A840042F210763C46B5FBF6F8B8F1000F03D09D
:106A940008F13000C0B201E027B13020FFF790FFC9
:106AA400012705E0042C14BF20203020FFF788FFC5
:106AB40006FB18550134E4B20A20052CADB2B6FB2E
:106AC400F0F6E0D1BDE8F04100F092B970B564246D
:106AD400B0FBF4F4054604F13000C0B2FFF770FFD8
:106AE40004EB8403C4EBC30405EB84040A26E4B278
:106AF400B4FBF6F505F13000C0B2FFF761FFC5EB5A
:106B04004510C5EB8000303404EB4000C0B2FFF701
:106B140057FF3046BDE8704000F06AB970B500F028
:106B24000404A4B20D463CB11848FFF763FF28469D
:106B3400FFF7CCFF002070BD00F00806B6B20EB11E
:106B44001348F2E700F01004A4B20CB11148ECE7CA
:106B540000F02006B6B20EB10F48E6E700F040049C
:106B6400A4B20CB10D48E0E700F40076B6B20EB161
:106B74000B48DAE700F48064A4B20CB10948D4E706
:106B8400C30401D50848D0E7012070BD818F0008F7
:106B9400B38F0008E78F0008149000083D900008A8
:106BA4007C900008AA900008D69000082DE9F041D6
:106BB400002607463446124DB7FBF5F8B8F1000F2E
:106BC40003D008F13000C0B201E026B13020FFF755
:106BD400F7FE012605E0032C94BF20203020FFF7A8
:106BE400EFFE01340A23E4B29C4205FB1877B5FB9F
:106BF400F3F5E1D12046BDE8F04100F0F9B800BF5B
:106C040000CA9A3B012810B5044601D0042810D1CB
:106C140002212D4800F04EFF04212B4800F04CFFC8
:106C2400052000F0C5F8012C01D1214614E0012112
:106C34001AE0022801D0052821D10221224800F0BF
:106C44003BFF0421204800F035FF052000F0B0F898
:106C5400022C4FF0010107D11C4800F065FE05200D
:106C640000F0A6F8194806E0194800F05DFE05207A
:106C740000F09EF81648BDE8104000F0A5BE0628B6
:106C84001ED1072301220D21104800F056FE0520D5
:106C940000F08EF801210D4800F046FE052000F0BA
:106CA40087F80A4800F090FE0446072301220A21CF
:106CB400064800F042FE052000F07AF8204610BD98
:106CC4004FF4004010BD00BF0010014000240140FB
:106CD4000028014010B5044608B103281FD1022141
:106CE400114800F0E9FE04210F4800F0E5FE0520FC
:106CF40000F05EF801213CB90C4800F015FE0520B7
:106D040000F056F8094806E0094800F00DFE052099
:106D140000F04EF80648BDE8104000F055BEBDE84E
:106D24001040FFF76FBF00BF001001400024014076
:106D34000028014008B50620FFF764FFC0F30F10D8
:106D4400722817D864214FF4FA7000F015F841F254
:106D540088314FF4FA7000F00FF864214FF4FA70A0
:106D640000F00AF8BDE8084041F288314FF4FA70A7
:106D740000F002B808BD000038B50C4600F03EF83B
:106D8400094D2B6873B14021084800F095FE204658
:106D940000F00EF84021054800F08CFE204600F07B
:106DA40007F8EEE738BD00BF980400200008014052
:106DB40010B50D4C0D4A23681BB913780133DBB2AF
:106DC4001370092885BF0A23B0FBF3F00123206068
:106DD40098BF23601078C0B2012801D101F044F8B3
:106DE4002368002BFCD110BDA404002094040020CF
:106DF4004FF47A735843FFF7DBBF00000A4B10B41B
:106E04001C681A4609491CB90B780133DBB20B70B4
:106E14006423584310600878C0B2012802D110BC22
:106E240001F022B810BC704798040020940400209C
:106E34000B4B0C491A681AB90A780132D2B20A709B
:106E4400092885BF0A22B0FBF2F00122186098BF1E
:106E54001A600878C0B2012801D101F005B8704762
:106E64008C04002094040020014B1868704700BF74
:106E7400840400202F4A10B513681168012B2E4B8F
:106E840002D90139116007E031B11168013911608B
:106E94001A78013AD2B21A70284A11680129116885
:106EA40002D90139116007E031B11168013911606B
:106EB4001A78013AD2B21A70214A1168012911686C
:106EC40002D90139116007E031B11168013911604B
:106ED4001A78013AD2B21A701A4A11680129116853
:106EE40002D90139116007E031B11168013911602B
:106EF4001A78013AD2B21A70134A1168012911683A
:106F040002D90139116007E031B11168013911600A
:106F14001A78013AD2B21A701B7803F0FF0443B90D
:106F24006FF0010000F0A0FF2046BDE8104000F023
:106F34009BBF10BDA404002094040020A0040020E2
:106F4400980400208C0400209004002008B502213D
:106F54004FF0804001F0A4F8D8B10E4A0221136822
:106F64004FF080400133136001F0A5F84FF08040EA
:106F740001F093F8084B186019684FF080406431B1
:106F840089B201F088F8054B1A6812B11A68013AFF
:106F94001A6008BD84040020880400209C0400209A
:106FA40010B500F041FE4FF4803000F05BFE00F0BD
:106FB4003DFF012804461CD0012140F21C6000F072
:106FC400F1FE01214FF4804000F0ECFE01214FF46A
:106FD400802000F0F3FE01214FF4801000F0EEFE5B
:106FE4000121084600F0EAFEBDE81040012000F04F
:106FF40015BE102000F0F8FC022000F0E9FC00208F
:1070040000F06EFE002000F07FFE4FF4806000F080
:1070140071FE4FF480304FF4E01100F03FFE204643
:1070240000F046FE392000F0EDFE0028FAD00220E0
:1070340000F044FE00F04CFE0828FBD1BCE7000041
:1070440037B54FF440514FF0006000F0ADFD4FF400
:10705400C06000F05DFD00221146164800F0B6FD48
:1070640001240025252301A88DF804308DF805504E
:107074008DF806408DF8074000F054FD27238DF865
:10708400043001A803238DF806308DF805508DF8DF
:10709400074000F047FD1C238DF8043001A80223AB
:1070A4008DF805508DF807408DF8063000F03AFD54
:1070B40003B030BD9AC302002DE9F34701A800F0E4
:1070C400F1FC40F60F13704E0324102501A930463D
:1070D400ADF804308DF806408DF8075000F090FCB0
:1070E4004FF4825301A93046ADF804304FF0000943
:1070F4008DF806408DF8075000F082FC202301A98A
:1071040030464FF04808ADF804308DF8079000F091
:1071140077FC4FF4404301A9304606F58066ADF88C
:1071240004308DF8078000F06BFC4FF4407301A924
:107134003046ADF804308DF806408DF8075000F065
:107144005FFC4FF4704301A930460427ADF80430C6
:107154008DF806408DF8075000F052FC302301A949
:107164003046ADF804308DF806408DF8075000F035
:1071740047FC4FF408630DEB07013046ADF80430CB
:107184004FF0180A8DF8077000F03AFC4FF488634A
:107194000DEB07013046ADF804308DF806408DF84C
:1071A40007A000F02DFC08230DEB0701304606F57F
:1071B4008066ADF804308DF8078000F021FC4FF4B0
:1071C40070730DEB07013046ADF804308DF80640BE
:1071D4008DF8075000F014FC06230DEB0701304630
:1071E400ADF804308DF806408DF8075000F008FC27
:1071F4004FF460430DEB07013046ADF804308DF8D1
:1072040006408DF8075000F0FBFB4FF480530DEB64
:1072140007013046ADF804308DF806408DF807A01C
:1072240000F0EEFB09230DEB07013046ADF8043006
:107234008DF8079000F0E4FB0DEB07013046ADF844
:1072440004508DF8078000F0DBFB4FF440630DEB36
:1072540007013046ADF804308DF8078000F0D0FB0C
:107264000DEB07010948ADF804708DF8077000F0C4
:10727400C7FB3846012100F021FC0121044800F03D
:107284001DFC02B0BDE8F087000801400014014075
:107294000004300010B586B001A800F021FB0124E1
:1072A40000234FF4602201A9264801938DF8083089
:1072B4008DF80930039204938DF8144000F0ECFA31
:1072C40001A9214800F0E8FA072322460A211D48B3
:1072D40000F033FB0723224605211B4800F02DFB59
:1072E4002146184800F005FB1748214600F001FB31
:1072F400144800F007FB134800F009FB0028FAD1FA
:10730400114800F0FFFA104800F001FB0028FAD100
:107314000C4800F000FB0B4800F002FB0028FAD1F7
:10732400094800F0F8FA084800F0FAFA0028FAD1FF
:107334000121044800F0F8FA0121034800F0F4FAAE
:1073440006B010BD002401400028014008B55A20B1
:1073540000F084FD012000F09BFD012000F084FD7D
:10736400014B00221A7008BD9404002010B588B0A7
:1073740001A800F05BFE04A800F061FE4FF080401D
:1073840000F092FD4FF6FF73002401A94FF08040F6
:10739400ADF80830ADF80440ADF80A40ADF8064049
:1073A40000F0ECFD012240F2D2214FF0804000F0C9
:1073B40067FE642304A94FF08040ADF81630ADF8A1
:1073C4001040ADF81240ADF8184000F0F5FD21462C
:1073D4004FF0804000F057FE012202214FF0804020
:1073E40000F04CFE01214FF0804000F032FE08B066
:1073F40010BD000008B56420FFF7FAFC094B1868BB
:10740400FEF7FCFF6420FFF7F3FC074B1868FFF757
:10741400C3FA6420FFF7ECFC044B1868BDE808408D
:10742400FFF794B87C000020840000208000002036
:1074340008B5094B00221A70FFF7B2FDFFF700FEF2
:10744400FFF73AFEFFF782FFFFF790FFFFF722FFF7
:10745400BDE80840FFF7CEBFA80400201FB50446CE
:10746400684600F0BFFE0094114C0023ADF80430D0
:10747400ADF80630ADF80830ADF80C3020460C23DA
:10748400ADF80A3000F01CFE0A20FFF7B1FC694693
:10749400204600F063FE0122204640F2255100F010
:1074A400B8FE2046012100F0A8FE012004B010BD62
:1074B40000480040014608B5044800F0C2FE4021DF
:1074C400024800F0C6FE0028F9D008BD004800407C
:1074D40010B540F225511B4800F0C1FE00282FD002
:1074E400184800F0B2FE184AC0B2232809BF137826
:1074F40000230133DBB213701378144B144C1A8835
:1075040092B21E2A1A8892B295BF511CA05489B215
:1075140000228EBF1A801980A0540E4A11881B883D
:1075240089B29BB29942134601BF1288013292B2CA
:107534001A801B889BB21F2B82BF064B00221A8025
:1075440010BD00BF00480040A9040020AA04002088
:10755400AF0C0020AC0C0020F0B50446114A124ECA
:10756400124F4FF0000E231ADBB2994216D9B2F82B
:1075740000C035881FFA8CFCADB2AC450FD013881F
:107584009BB25D1CADB21580FB5C04F8013B138813
:107594009BB21F2B88BFA2F800E0E4E70B46184615
:1075A400F0BD00BFAC0C0020AA040020AF0C0020EA
:1075B400FFF78EBF1FB50446684600F013FE009423
:1075C400144C0023ADF80430ADF80630ADF80830A3
:1075D400ADF80C3020460C23ADF80A3000F070FDF5
:1075E4000A20FFF705FC6946204600F0B7FD01229A
:1075F400204640F2255100F00CFE2046012100F007
:10760400FCFD4FF48051044800F056FA012004B008
:1076140010BD00BF0050004000080140F0B5044612
:107624000C4A0D4E0D4F231ADBB299420ED992F833
:1076340000E03578AE450AD01378DBB25D1CEDB2BC
:107644001570FB5C04F8013B1378ECE70B46184615
:10765400F0BD00BFAE0C0020D00C0020AC08002010
:1076640008B540F22551124800F0F9FDF8B1104870
:1076740000F0EBFD0F4AC0B2232809BF13780023A2
:107684000133DBB2137013780B4A13781378DBB22F
:10769400591CC9B211700949C854094B1978127898
:1076A400914201BF1A780132D2B21A701B7808BD18
:1076B40000500040A9040020D00C0020AC08002099
:1076C400AE0C00201FB50446684600F08BFD009404
:1076D400114C0023ADF80430ADF80630ADF8083095
:1076E400ADF80C3020460C23ADF80A3000F0E8FC6D
:1076F4000A20FFF77DFB6946204600F02FFD01229A
:10770400204640F2255100F084FD2046012100F07E
:1077140074FD012004B010BD00380140002310B5F1
:1077240040F2FF311C460648C45401338B424FF0EB
:107734000002F9D1034B1A80034B1A8010BD00BF1D
:10774400AC040020D40C0020D20C002070B50E46EE
:107754004B1E451EC418A5421BD020210E4800F024
:10776400ABF910210C4800F0A5F915F8011F0B48DE
:1077740000F067FD4021094800F06BFD0028F9D0B6
:107784001021054800F098F92021034800F092F9EF
:10779400E1E7304670BD00BF000C014000380140F5
:1077A4002DE9F041044640F2FE37144A144D154EBB
:1077B4004FF0000E231ADBB299421BD9B2F80080B5
:1077C400B5F800C01FFA88F81FFA8CFCE04512D007
:1077D40013889BB203F1010C1FFA8CFCA2F800C0C1
:1077E400F35C04F8013B13889BB2BB4288BFA2F848
:1077F40000E0DFE70B461846BDE8F081D40C00201A
:10780400D20C0020AC0400201E235843FFF710BB09
:10781400024B1868B0FA80F0400970478C040020CD
:1078240010B540F22551184800F019FD00282AD05F
:10783400154800F00AFD40F2FD31144B144C1A882F
:10784400C0B292B28A421A8892B295BF511CA05417
:1078540089B200228EBF1A801980A0540D4A118863
:107864001B8889B29BB29942134601BF1288013228
:1078740092B21A8040F2FE321B889BB2934282BFBE
:10788400044B00221A8010BD00380140D20C0020A5
:10789400AC040020D40C0020436810B523F47022FB
:1078A4000B6822F4807213430A7943EA022343608B
:1078B400CA688B6884681A43084B234013434A7987
:1078C40043EA42038360C36A23F470020B7C013BE6
:1078D400DBB242EA0353C36210BD00BFFDF7F1FF00
:1078E40000230360037143718360C3600123037445
:1078F4007047836811B143F0010301E023F00103F1
:1079040083607047836843F008038360704780682E
:10791400C0F3C0007047836843F00403836070477A
:107924008068C0F380007047836811B143F4A003FA
:1079340001E023F4A00383607047092970B50DD9D1
:10794400A1F10A04C66804EB44040725A54026EA0D
:10795400050503FA04F42C43C4600AE0066901EB4C
:1079640041040725A54026EA050503FA04F42C433F
:107974000461062A0CD8013A446B02EB82021F23ED
:10798400934024EA030301FA02F21A43426370BDEE
:107994000C2A0CD8073A046B02EB82021F23934093
:1079A40024EA030301FA02F21A43026370BD0D3A9A
:1079B400C46A02EB82021F23934024EA030301FA00
:1079C40002F21A43C26270BDC06C80B270470000FC
:1079D400044B1A6802F038021A601A6810431860DF
:1079E400704700BF00200240044B1A6822F01002C6
:1079F4001A601A6810431860704700BF00200240E4
:107A0400CA782DE9F041D40648BF8C780E8802F07C
:107A14000F0348BF234316F0FF0F1ED00168002454
:107A24004FF0010E4FF00F0C0EFA04F737EA06057B
:107A34000FD1A5000CFA05F821EA080103FA05F5AF
:107A4400282A41EA050101D1476102E0482A08BF1A
:107A540007610134082CE7D10160FF2E20D9416869
:107A640000244FF0010E4FF00F0C04F108050EFA3C
:107A740005F535EA06070FD1A7000CFA07F821EA45
:107A8400080103FA07F7282A41EA070101D14561F1
:107A940002E0482A08BF05610134082CE5D14160A1
:107AA400BDE8F0814FF6FF73038002238370042343
:107AB400C3707047016170474161704730B5134A24
:107AC40000F44015B5F5401F536884B206D15568DB
:107AD40023F0706325F0706555600EE0C20255BF57
:107AE400420D03221201C0F303454CBFAA4004FA1D
:107AF40002F223EA020343F0706321B1400D000156
:107B040004FA00F00343014A536030BD0000014011
:107B140040F0BF60024B40F40030D860704700BFB3
:107B240000ED00E0C27830B503786AB31C4AD1682E
:107B34004278C943C1F30221C1F1040402FA04F4F6
:107B44000F22CA4081780A4003F0030103F0FC03CA
:107B540003F1604303F561432243CD00D3F80043AE
:107B64001201AA40FF21A94062400A406240C3F8C2
:107B7400002303780122590903F01F0302FA03F3D7
:107B8400084A42F8213030BD5A09012103F01F038D
:107B940001FA03F30349203241F8223030BD00BF1B
:107BA40000ED00E000E100E021F0604121F07F0100
:107BB400014B08439860704700ED00E0014A024B16
:107BC400DA6070470400FA0500ED00E0124B10B5CE
:107BD400DB68DB43C3F30223C3F10404A140FF24A5
:107BE40024FA03F31A4041EA02031A01C0F3012301
:107BF400C0F38110800000F1604000F56D408169A0
:107C0400DB009C4021EA04048461816902FA03F3E5
:107C14000B43836110BD00BF00ED00E0014B186011
:107C2400704700BF20000E420C4B1A6842F001025C
:107C34001A6059680A4A0A405A601A6822F0847223
:107C440022F480321A601A6822F480221A605A6878
:107C540022F4FE025A6000229A607047001002402B
:107C64000000FFF80C4BB0F5803F1A6822F4803214
:107C74001A601A6822F480221A6003D0B0F5802FAB
:107C840004D070471A6842F4803202E01A6842F461
:107C9400A0221A60704700BF00100240034A5368D4
:107CA40023F47C13194308435060704700100240CA
:107CB400014B1860704700BF60004242034A53689A
:107CC40023F0030318435060704700BF00100240C4
:107CD400024B586800F00C00704700BF00100240CF
:107CE400034A536823F0F00318435060704700BF01
:107CF40000100240034A536823F4E06318435060C1
:107D0400704700BF00100240034A536823F46053D5
:107D140043EAC00050607047001002401C4A10B58E
:107D2400536803F00C03042B01D0082B01D0194B2A
:107D34000EE053685168C3F38343CC0303F1020399
:107D440002D55168890301D5134900E011494B4319
:107D540003605368114CC3F30313E15C0368CB4025
:107D640043605168C1F30221615C23FA01F181602F
:107D74005168C1F3C221615CCB40C36052680849B9
:107D8400C2F381328A5CB3FBF2F3036110BD00BF1E
:107D94000010024000127A0000093D009B91000887
:107DA400AB910008044B9A6909B1104301E022EA3F
:107DB40000009861704700BF00100240044BDA696C
:107DC40009B1104301E022EA0000D861704700BF06
:107DD40000100240044BDA6809B1104301E022EAC2
:107DE4000000D860704700BF00100240044B1A69BD
:107DF40009B1104301E022EA00001861704700BF96
:107E0400001002404209012A074B01D11B6803E01C
:107E1400022A0CBF1B6A5B6A00F01F0023FA00F001
:107E240000F00100704700BF0010024007B50023B6
:107E340001933120FFF7E6FF019B0133019318B949
:107E4400019BB3F5A06FF4D13120FFF7DBFF0030C5
:107E540018BF012003B05DF804FB0000014B58601B
:107E6400704700BF10E000E00128084B03D11A68F6
:107E740042F0010204E0023004D11A6822F0010247
:107E84001A60704700229A60704700BF10E000E05B
:107E9400044B1A6810B142F0020201E022F002021F
:107EA4001A60704710E000E008B5314B98423DD0AD
:107EB40011D8A3F50063984227D003F58063984254
:107EC4002DD0B0F1804F52D101210846FFF78EFF2B
:107ED400002101201FE0274B984235D004D8A3F598
:107EE4008063984229D008BD234B984204D003F5FF
:107EF400006398422FD008BD01214FF40060FFF7C2
:107F040069FF00214FF400602DE001210220FFF7FA
:107F14006DFF00210220BDE80840FFF767BF012183
:107F24000420FFF763FF00210420F4E70121082067
:107F3400FFF75CFF00210820EDE701211020FFF787
:107F440055FF00211020E6E701212020FFF74EFF16
:107F540000212020DFE701214FF40050FFF73AFF12
:107F640000214FF40050BDE80840FFF733BF08BDBF
:107F7400000C004000140040002C01400388CA8813
:107F840003F08F03038003889BB213434A8813438F
:107F94009BB203808B8883850B88038501238382AE
:107FA400044B984203D003F50063984201D10B7A45
:107FB40003867047002C0140038C70B523F0010345
:107FC4001B041B0C0384038C8488028B0E8822F010
:107FD40070021204120C23F0020516430B894A881E
:107FE4002D041343CA882D0C82860F4A2B439042DA
:107FF400A4B29BB203D002F5006290420FD147F6BF
:10800400FF454A8923F0080313438A8823F00403B5
:10801400254013438C89CA8914432C43A4B2848019
:108024000683038470BD00BF002C01404FF6FF732C
:10803400838000230380C38043800372704700233E
:10804400038043808380C380038143818381C38110
:108054007047038819B19BB243F0010303E023F096
:1080640001039B059B0D0380704783899BB20AB172
:10807400194301E023EA010181817047FFF7F5BF4D
:10808400018582827047038B23F008031B041B0CB9
:1080940019430183704781867047808E80B2704790
:1080A400038A828911EA030092B203D0114214BFF9
:1080B400012000207047C94389B201827047000043
:1080C40008B5244B98422ED008D8A3F500639842F3
:1080D40017D003F5806398421CD008BD1E4B98420C
:1080E4002AD003F56843984232D101214FF48040ED
:1080F400FFF770FEBDE8084000214FF48040FFF711
:1081040069BE01214FF40030FFF770FE00214FF4E7
:10811400003019E001214FF48020FFF767FE0021B1
:108124004FF4802010E001214FF40020FFF75EFEA1
:1081340000214FF4002007E001214FF48010FFF7E5
:1081440055FE00214FF48010BDE80840FFF74EBEF5
:1081540008BD00BF004C00400050004030B50D4643
:108164000446038ACA889BB223F440531343038210
:10817400828989882B8992B20B43698922F4B0528F
:108184000B4322F00C0213439BB28381838AAA8996
:108194009BB223F4407387B01343838201A8FFF793
:1081A400BDFD039B049A0E498C4218BF1A4619233D
:1081B40053432A689200B3FBF2F26423B2FBF3F058
:1081C4000001010903FB112212013232B2FBF3F365
:1081D40003F00F0303439BB2238107B030BD00BFFC
:1081E400003801404FF4165303600C2200238380AF
:1081F400C3800381428183817047838919B19BB213
:1082040043F4005303E023F400531B041B0C838149
:108214007047012310B5C1F342149C4201F01F01C1
:1082240003FA01F101D10C3003E0022C0CBF103031
:10823400143003680AB1194301E023EA0101016023
:1082440010BDC1F30801818070478088C0F3080025
:1082540070470388194214BF01200020704701238E
:1082640010B5C1F3421401F01F029C4203FA02F25A
:1082740001D1838903E0022C0CBF038A838A9BB259
:108284001340028892B243B10123090A03FA01F1AF
:108294000A4214BF1846002010BD184610BD000045
:1082A400684620F007018D4601B50C4A0C4B0D4978
:1082B4008B4204D252F8040F43F8040BF8E70A4B3C
:1082C4000A4A0021934202D243F8041BFAE7FCF75E
:1082D40089FFBDE801408546704700BFC49100088E
:1082E4000000002088000020880000208800002072
:1082F40000000001010100005700AE0005015C010F
:10830400B4010B026202B90210036703BE03150431
:108314006C04C20419056F05C6051C067206C8065E
:108324001E077407C9071F087408C9081E097309C2
:10833400C7091C0A700AC40A180B6B0BBF0B120C7A
:10834400650CB70C0A0D5C0DAE0DFF0D510EA20E9F
:10835400F20E430F930FE30F32108210D1101F114E
:108364006D11BB1109125612A312F0123C1387139C
:10837400D3131E146814B314FC1446158F15D715A3
:1083840020166716AF16F5163C178217C7170C1878
:1083940051189518D8181B195E19A019E219231A37
:1083A400631AA31AE31A221B611B9F1BDC1B191CF3
:1083B400551C911CCC1C071D411D7B1DB41DEC1DBF
:1083C400241E5B1E921EC81EFD1E321F661F9A1FAE
:1083D400CD1FFF1F312062209220C220F1202021D6
:1083E4004E217B21A821D421FF212A2254227D223F
:1083F400A622CE22F5221B23412367238B23AF23FE
:10840400D223F52316243724582477249624B4241D
:10841400D224EF240B25262541255B2574258C25A4
:10842400A425BB25D125E625FB250F2622263526A6
:10843400472658266826782686269426A226AE261F
:10844400BA26C526CF26D926E126E926F126F7261F
:10845400FD260227062709270C270E270F2710279A
:10846400010101000000424242424242436F6D6DED
:10847400616E64657220496E69743A2050435F5599
:108484004152542061742000457374696D617465B0
:108494006420676C6F62616C20646174612073692D
:1084A4007A653A20005374617274696E6720484596
:1084B400415020696E666F3A2073746172742D3E68
:1084C40000202063757272656E74285F656E64297E
:1084D4002D3E00537461727420535441434B206900
:1084E4006E666F3A20656E6452616D2873746172B2
:1084F4007420737461636B292D3E002020637572B0
:1085040072656E74287370292D3E0054727920743C
:108514006F20696E6974206D656D6F72790A004110
:108524006674657220696E6974206D656D6F727909
:108534000A0A004845415020707472202D3E0020E4
:108544002055736167652D3E00535441434B2070A1
:108554007472202D3E2000457374696D61746564E6
:1085640020554E55534544204D454D285374616361
:108574006B28646F776E292B4865617028757029A4
:10858400292D3E002D2D3E004E6F6D4761697453B9
:10859400706565643A007C005374657073496E4776
:1085A4006169743A004E724C6966746564506F7305
:1085B4003A0046726F6E74446F776E506F733A0070
:1085C4004C696674446976466163746F723A005408
:1085D4004C446976466163746F723A0048616C6614
:1085E4004C6966744865696768743A0023232323D9
:1085F4002323232323232323232323232323232347
:108604002323232323232323232323232323232336
:108614002323232323232323232323232323232326
:1086240023232323232323230A004D202D205052C8
:10863400494E54204D656E750A0050202D2050522D
:10864400494E54204D656D6F72792055736167658D
:108654000A0043202D205052494E542041582D31B8
:10866400324120436F6E74726F6C205461626C658A
:10867400202872756E2061733A20432331322328F7
:10868400657C727C612923290A0041202D205052E7
:10869400494E542041582D31324120416464726561
:1086A4007373205461626C650A0047202D20505278
:1086B400494E54204741495473205461626C650A01
:1086C4000052202D205245534554205048414E54C9
:1086D4004F4D580A00232323232323232323232317
:1086E4002323232323232323232323232323232356
:1086F4002323232323232323232323232323232346
:108704002323232323232323232323232323232335
:10871400230A0A000A232323232323232323232096
:1087240047616974735461626C6520232323232396
:10873400232323232323232323232323230A00580C
:10874400202D2052572066726F6D2041582D3132F2
:10875400412061646472657373207461626C650A9C
:10876400003F3A20582369642352287265616429C2
:108774007C57287772697465292331286279746576
:10878400297C3228776F726429236F706572617453
:10879400696F6E2376616C756523207C20582331C4
:1087A4003223522331234923207C2058233132237E
:1087B400572331234923323323000A23232323233A
:1087C40023232323232041582D3132612041646423
:1087D400726573735461626C6520232323232323FE
:1087E4002323232323232323232323230A000A23AA
:1087F40023232323232323232320525720232323E8
:108804002323232323232323232323232323230A4D
:10881400000A2323232323232323232320436F6EAC
:1088240074726F6C5461626C6520232323232323A9
:108834002323232323232323232323230A00232043
:108844002020202020202050726F6772616D2053F9
:1088540074617274202020202020202020202023D6
:108864000A00232323232323232323232020494EC5
:1088740054204D454D202023232323232323232326
:108884000A002323232323232323232320204741B4
:10889400495420202323232323232323230A00238F
:1088A40023232323232323232320204D454D2055F5
:1088B4005341474520202323232323232323230A0F
:1088C40000526970706C6520313200547269706FA7
:1088D4006420380054726970706C65203132005421
:1088E400726970706C65203136005761766520328C
:1088F400340054726970706C652036009E029E02CA
:108904009E029E029E029E02C4FF9CFFC4FF3C0086
:1089140064003C007800000088FF7800000088FFB5
:1089240012FD12FD12FD12FD12FD12FD3EFE0000AD
:10893400C2013EFE0000C201717171717171FFFECE
:10894400FCFBFAF9F7F6F5F3F2F1F0EEEDECEAE9F7
:10895400E8E7E5E4E3E1E0DFDDDCDBD9D8D7D6D432
:10896400D3D2D0CFCECCCBC9C8C7C5C4C3C1C0BE77
:10897400BDBCBAB9B7B6B5B3B2B0AFADACAAA9A7CE
:10898400A6A4A3A1A09E9D9B9A9896959392908E3F
:108994008D8B8987868482807F7D7B7977757371DF
:1089A4006F6D6B69676562605E5C595754514F4CDB
:1089B4004949494848484747474646464645454544
:1089C4004444444343434242424141414040403F86
:1089D4003F3F3E3E3E3D3D3D3C3C3B3B3B3A3A3ACD
:1089E400393939383837373736363535353434331D
:1089F40033333232313130302F2F2F2E2E2D2D2C78
:108A04002C2B2B2A2A2929282827272625252424E4
:108A14002322222121201F1F1E1D1C1C1B1A191872
:108A240017171717161616161515151514141413EB
:108A3400131313121212111111111010100F0F0F22
:108A44000E0E0D0D0D0C0C0B0B0A0A090908070676
:108A5400060503007CFC7CFC7CFC7CFC7CFC7CFC34
:108A640084038403840384038403840368009300DD
:108A740068006800930068006800000098FF6800C0
:108A8400000098FFEE02EE02EE02EE02EE02EE02AB
:108A9400080E02070D010A1004090F030C12060B3D
:108AA400110519001900190019001900190004FC16
:108AB40004FC04FC04FC04FC04FC3434343434347A
:108AC4007B002C2000202861782D313229002028B9
