:020000040800F2
:1030000000000120459F0008395100083B5100088D
:103010003D5100083F5100084151000800000000E8
:103020000000000000000000000000004551000802
:1030300043510008000000004751000849510008B2
:103040004D5100084F5100085151000853510008DC
:103050005551000857510008595100085B510008AC
:103060005D5100085F510008615100080000000038
:103070000000000000000000000000000000000050
:1030800000000000000000007151000873510008AA
:103090007551000877510008795100087B510008EC
:1030A0007D5100087F5100088151000883510008BC
:1030B00085510008895100088B5100088D51000886
:1030C0008F51000891510008935100089551000854
:1030D00097510008995100089D5100089F51000820
:1030E000A3510008A5510008A7510008A9510008E4
:1030F000AB510008AD510008AF510008B1510008B4
:10310000B3510008B5510008B7510008B951000883
:10311000BB510008BD510008C1510008C35100084F
:10312000C5510008C7510008C9510008CB5100081B
:043130005FF8000044
:1031340038B50A4C00250A482580658003F012FE44
:10314400084B186803F010FE074803F00BFE2571C6
:103154006571A5712572E57138BD00BFEC000020D2
:1031640070A70008E000002016AA000870472DE9A7
:10317400F041FF2492B020468DF8004002F059FF40
:1031840020468DF8014002F054FF00256C466F463E
:10319400A8460126E8B2A07004F07EFCE670012087
:1031A40004F07AFC012003F095FB2071012003F068
:1031B40091FB04F071FC012003F08EFB607101208F
:1031C40003F08AFB04F068FC84F80680002004F015
:1031D40063FC4FF4C57003F07DFBE0714FF4C570E0
:1031E40003F078FB04F058FC4FF4C57003F074FB53
:1031F40020724FF4C57003F06FFB04F04DFC66724F
:10320400012004F049FC012003F064FBA0720120BA
:1032140003F060FB04F040FC012003F05DFBE0726E
:10322400012003F059FB013504F036FC062D04F1AE
:103234000A04AFD13E21384603F006FC04F02CFC0E
:1032440012B0BDE8F0810A4B0022FF211A615A61D5
:103254009A619A62DA621A639A641A65DA641A8065
:103264005A8083F854101A7383F86C20704700BF97
:10327400EC0000207047704738B502F0B9FD012812
:1032840005461AD102F0BCFE0E4C84F86D0002F023
:10329400BFFE84F86E0002F0A3FE84F86F0002F013
:1032A400A7FE84F8700002F08DFE84F8710002F02D
:1032B4008FFE84F87200284638BDFFF758FF0020BF
:1032C40038BD00BFEC00002038B503F067FC0128CE
:1032D4000546FAD103F006FD0C4C84F86D0003F0AA
:1032E40009FD84F86E0003F0EDFC84F86F0003F030
:1032F400F1FC84F8700003F0D9FC84F8710003F049
:10330400DBFC84F87200284638BD00BFEC000020C6
:1033140070B5104B104D1B78104E6BB14FF6FF7308
:103324002A889A4208D004F08FF8736FC01AB0F557
:103334007A7F01D2288870BD2A21012003F018FB6E
:10334400044604F081F8706704EB8400400080B206
:10335400288070BD140C002000000020EC00002028
:103364002DE9F04140F27714D201DB01C90192FB4F
:10337400F4F591FBF4F193FBF4F4164B01F50071B1
:1033840093F8782005F5007504F5007489B2ADB2A0
:10339400A4B2861D00F10C086AB103EB400003EBF4
:1033A400460603EB4803A0F87A10A6F87A50A3F86F
:1033B4007A40BDE8F081084F385602F05BF82946A0
:1033C400B85702F057F8214617F90800BDE8F04154
:1033D40002F050B8EC00002018A4000881428CBF11
:1033E400081A401A80B24FF454735843B0FBF2F0F9
:1033F40080B2B0F5806F03D2192898BF1A207047A5
:1034040040F2FF3070472DE9F0410446FE200F469C
:1034140003F016FA832003F019FA2146002003F082
:103424001BFA0121084603F017FA134EDFF84C800B
:103434000025306885420DDA15F8081001356C0056
:10344400E4B2204603F008FA601C3946C0B203F027
:1034540003FAEEE70230400000F0FE0003F002FA47
:1034640003F062FA03F0E6F9044602F07BFE20461C
:10347400BDE8F04102F039BE6C0B002018A400082E
:1034840010B5084C012384F89E30074B12221A60B1
:1034940001F0E0FE002184F878100520BDE810401A
:1034A400FFF7B1BFEC0000206C0B00202DE9F84FB2
:1034B400354E814696F87830002B61D0FE2003F01B
:1034C400BFF9832003F0C2F91E21002003F0C4F9E0
:1034D40000240421012003F0BFF92546DFF8B0B031
:1034E400DFF8B0A07A36DBF80000671D8542FFB232
:1034F40032DA264B4A4633F8150036F81510FFF732
:103504006DFF8046A01C1AF80510C0B203F0A4F9A0
:1035140036F8150003F0DEF9E31C0146D8B203F0D7
:103524009BF936F8150003F0D7F9231D0146D8B2EC
:1035340003F092F9404603F0CDF90146384603F012
:103544008BF9404603F0C8F906340146E0B2013570
:1035540003F082F93C46C6E700EB80000430C0B2B9
:1035640003F080F903F0E0F903F064F9022803D1D1
:10357400BDE8F84F02F0F6BDBDE8F84F02F0B5BD66
:10358400BDE8F84F01F0C2BEEC0000208C01002021
:103594006C0B002018A400080B4B70B593F89E40E8
:1035A4001D467CB921461820FFF72DFF074E305DDC
:1035B40000221821013403F0F9F9122CF7D1012368
:1035C40085F89E3070BD00BFEC00002018A40008F0
:1035D4000A4B19219A780132D2B2112A83BF0022F0
:1035E4009A70DA789A7084BFC2F10102DA7098781E
:1035F400DA78034B185C03F0D9B900BF000000204F
:1036040018A40008F8B5114C94F89E30E3B194F86E
:10361400783083B10E4F002504F17A062421785DB9
:1036240003F0D6F926F815001920013503F096FEAB
:10363400122DF3D101E001F00DFE01211820FFF756
:10364400E2FE002384F89E30F8BD00BFEC000020A9
:1036540018A4000808B5FFF7D5FF0A4A92F8783095
:1036640053B10023A032084931F8131022F8131083
:103674000133122BF7D108BD0120BDE8084001F049
:1036840073BE00BFEC0000206601002008B5054BA6
:1036940093F8780028B901F067FEBDE8084003F00C
:1036A400FDBD08BDEC000020094BD3F8C42012B9BD
:1036B400084AC3F8C4206A46D3F8C4301844904278
:1036C4009DBF034AC2F8C40018464FF0FF3070474C
:1036D400EC000020E03E002010B519AB244C23F090
:1036E4005F4323F47F03C4F8C830224B2248C4F854
:1036F400CC3003F037FBB4F8CC0003F003FC1F48D4
:1037040003F030FB1E4803F02DFBD4F8CC0003F08B
:10371400F9FB1C4803F026FB0020FFF7C5FF03F06C
:10372400F1FB164803F01EFB174803F01BFBD4F80B
:10373400C80003F0E7FB154803F014FB684603F0E8
:10374400E1FB0E4803F00EFB114803F00BFB0020D5
:10375400ADF10A01FFF7A8FFFF23884202D200F867
:10376400013BFAE70B48BDE8104003F0FBBA00BF89
:10377400EC000020E03E00208CA7000816AA0008F8
:10378400A9A70008C5A70008D7A70008FFA7000835
:103794000FA8000823A8000870B50020FFF784FFD5
:1037A40005461C4803F0DEFA1B4E284603F0AAFB2C
:1037B4001A4803F0D7FAD6F8CC002C46281A03F09E
:1037C400A1FB174803F0CEFAADF10A018C421BD3DA
:1037D400144803F0C7FA204603F0C6FA0F4803F072
:1037E400C1FAD6F8C800001B03F08CFB0C4803F0A8
:1037F400B9FA0D4803F0B6FA601B03F083FB0B48DB
:10380400BDE8704003F0AEBA2378621CFF2BDFD111
:103814001446DBE737A80008EC00002043A80008A2
:1038240016AA00084DA800085BA8000815AA0008FD
:103834002DE9F74F304C002504F1520234F8023CD4
:1038440052F825000092019394F800B094F801A076
:1038540094F8029094F803802779667903F082FA49
:10386400264803F07FFA264803F07CFA019B0135D1
:1038740018B203F0D7FA234803F074FA224803F08D
:1038840071FA584603F0CEFA1E4803F06BFA1F484B
:1038940003F068FA504603F0C5FA1A4803F062FAD6
:1038A4001B4803F05FFA484603F0BCFA154803F0DE
:1038B40059FA184803F056FA404603F0B3FA11488F
:1038C40003F050FA144803F04DFA384603F0AAFA0C
:1038D4000C4803F047FA114803F044FA304603F069
:1038E400A1FA0F4803F03EFA062D04F10E04009AE3
:1038F400A4D103B0BDE8F08F0600002088A800081A
:103904008CA800089AA800089CA80008A9A8000888
:10391400B6A80008C4A80008D3A80008E0A80008B6
:1039240016AA00082DE9F041824CA37B8BB3824890
:1039340003F018FA642003F011FD804803F012FA32
:10394400642003F00BFD7E4803F00CFA642003F0BE
:1039540005FD7C4803F006FA642003F0FFFC7A4876
:1039640003F000FA642003F0F9FC784803F0FAF954
:10397400642003F0F3FC764803F0F4F9642003F0C8
:10398400EDFC744803F0EEF9642003F0E7FC002337
:10399400A373714E0121304604F0A0F901280146B9
:1039A400354640F0C580337803F0DF03522B03D152
:1039B40005F0DAF8BDE8F0814D2B02D1A073BDE823
:1039C400F081472B06D1654803F0CCF9FFF730FFAF
:1039D400BDE8F081502B03D1FFF7DEFEBDE8F08196
:1039E400412B15D15E4803F0BDF9642003F0B6FC09
:1039F4005C4803F0B7F9642003F0B0FC5A4803F0C4
:103A0400B1F9642003F0AAFC01F06CFFBDE8F08179
:103A1400582B03D0432B53D0BDE8F081304604F03B
:103A24005DF93378232B16D10024264601214A4818
:103A340004F054F92B78232B0ED01CB91E44303ECD
:103A44000124F3E70A2202FB063601214248303EF4
:103A540004F044F900E000262B783F4C232B67D177
:103A64000121204604F03AF901212046257804F08A
:103A740035F92378232B5BD10121204604F02EF95C
:103A840001212046277804F029F92378232B4FD1EC
:103A94000121204604F022F90121204694F80080F7
:103AA40004F01CF92378232B42D1304803F05AF94F
:103AB40043463A4629463046BDE8F04101F0E8BFA6
:103AC400304604F00BF93378232B31D100263446E9
:103AD4000121214804F002F92B78232B0FD0303B2D
:103AE4001EB92344DCB20126F2E704EB840403EBA1
:103AF40044030121184803F0FF0404F0EFF82B7885
:103B0400154E232B14D10121304604F0E7F801218E
:103B14003046357804F0E2F83378232B08D1144882
:103B240003F020F929462046BDE8F04101F05EBDCE
:103B3400BDE8F081EC000020F0A800082EA90008E0
:103B44003EA9000856A900088EA90008AEA90008DD
:103B5400C5A90008D9A900080B26002018AA000846
:103B640043AA000865AA0008BEAA0008F2AA000831
:103B740015AB00082DE9F04F95B0FFF76BFDFF245E
:103B840020468DF8084002F054FA20468DF809408A
:103B940002F04FFA724D02AC05F10C074FF0000829
:103BA4004FF002095FFA88F301939DF804300198FD
:103BB400A37003F071FFB5F9003009F1020A002B7C
:103BC40006DA0020E07003F067FF4FF0FF3604E0F0
:103BD4000126E670304603F05FFF2888B6B27043D2
:103BE40080B202F077FE14AB9A440AF8480C288895
:103BF4004FEA480A704380B202F06CFE03F04CFFB7
:103C0400288809F1050B704380B202F065FE6071EB
:103C14002888704380B202F05FFE03F03DFF514BF1
:103C240033F91830002B06DA0020A07103F034FFBA
:103C34004FF0FF3604E00126A671304603F02CFF56
:103C4400484BB6B233F80A00704380B202F042FE29
:103C540014AB9B44434B0BF8480C33F80A0009F1AE
:103C6400080B704380B202F035FE03F015FF3D4BA4
:103C740033F80A00704380B202F02EFE394B2072F2
:103C840033F80A00704380B202F026FE03F004FF0A
:103C9400B7F90030002B06DA0020607203F0FCFE56
:103CA4004FF0FF3604E001266672304603F0F4FE5E
:103CB4003888B6B2704380B202F00CFE14AB9B4459
:103CC4000BF8480C388809F10A09704380B202F0F5
:103CD40001FE03F0E1FE3888704380B202F0FCFD7F
:103CE400E0723888704380B202F0F6FD03F0D4FE2F
:103CF4001D4B298818F803300BB1494289B21B4B7C
:103D040018F803302BB1174B33F80A20524292B201
:103D140002E0144B33F80A20154B18F803301BB19A
:103D24003B885B429BB200E03B881BB212B209B2F3
:103D34000198FFF715FBB9F13E0F08F1010804F1F2
:103D44000A0405F1020507F102077FF42BAF494687
:103D540002A802F079FE03F09FFE15B0BDE8F08FD3
:103D6400BC010020D40100202AA400087000002017
:103D740030A40008704710B5062003F03BFA1E4C2F
:103D8400C0F30F1094F8F630A4F8F400C3B940F26D
:103D94006A72643880B290422AD9FF2284F854208F
:103DA400012223616361A361A362E3622363A364C9
:103DB4002365E36484F8F62084F8F730237317E06E
:103DC4006F38B0F5EC6F03D2002384F8F6300FE0BF
:103DD40094F8F730042B07D801334FF4FA612D20FF
:103DE40084F8F73003F07CFA4FF4FA6003F0B6FA83
:103DF40094F8F60010BD00BFEC0000205949F0B55E
:103E0400B1F9FC30192B16D1B1F9F830192B12D1B4
:103E1400B1F9FE30192B0ED1B1F9FA30192B0AD1B0
:103E2400B1F90031192B06D1B1F90231A3F119020C
:103E34005342534100E0002391F85400494A0528B5
:103E440081F804315AD892F85540A0422DD0464901
:103E54006BB14300CD18D41811F810306978143BB5
:103E640003EB012382F85500A4F8F830F0BD01F10A
:103E74000C056300E818467815F814001A4400EBA2
:103E84000620A2F80601C818457811F81400183164
:103E940000EB05200B44A2F8F800587811F8143010
:103EA40003EB0023A2F81231F0BD92F86430002B2A
:103EB40057D12D4B410013F810705E18D46D7678ED
:103EC4003C44551804EB0624A5F8F84003F10C040F
:103ED4001833661814F810701944946D13F8100010
:103EE400136E76784A783C44034404EB062403EBCF
:103EF4000223A5F80641A5F81231F0BD23B191F8CB
:103F04005530FF2B29D1F0BD1848A0F10C0700F162
:103F14000C065A00851895F801E010F813508C1817
:103F240005EB0E25A4F80651BD1895F801E017F825
:103F34001350324405EB0E25A4F8F850557816F8C2
:103F440013200133DBB202EB0522062BA4F8122165
:103F5400DFD1044A82F81E31D1E7024BFF2283F8F5
:103F64005520F0BDEC00002036A4000842A400084F
:103F74000B490C4B91F8342093F8760090420ED9FB
:103F84000E2000FB023301F13602181D103350F8E5
:103F9400041B984242F8041BF9D10388138070472C
:103FA400EC00002000000020F8B540F6B73403F020
:103FB4004BFAA042FBD93F4802F0D4FE3E4802F03F
:103FC400D1FE3E4C3E4802F0CDFE002501233D4883
:103FD40084F81F3184F8205102F0C4FEFFF77CFB03
:103FE40001F0DCFAFFF74CFA0A2003F0B7F92B468C
:103FF40021463548A0F10C0E00F10C075A00861832
:1040040096F801C010F813608D1806EB0C26A5F87D
:1040140006610EEB020696F801C01EF813603A44DE
:1040240006EB0C26A5F8F860567817F81320013330
:10403400DBB202EB0622062B204CA5F81221DDD1BF
:1040440084F81E31FF2384F8543084F85530322329
:104054000025A4F84430012384F8353025616561D6
:10406400A561A562E5622563E5612562656284F860
:10407400345084F8655084F86A50FFF779FF134888
:1040840002F070FEFFF7D4FB114802F06BFEFFF75D
:104094004FF80F4802F066FE96230E48A4F822312A
:1040A400257384F8F65002F05DFEBDE8F840FFF792
:1040B40073BB00BF0AA9000842AB0008EC00002053
:1040C400F3A9000866AB000842A4000886AB000808
:1040D40016AA0008A3AB000870B58C4B191891F808
:1040E4003E1093F835208000521A93F8241192B2AE
:1040F40029B193F83940E50726D52ABB16E01ABB47
:104104001C18D4F82851002DB8BF6D42022D0DDCC7
:10411400D4F84051002DB8BF6D42022D06DCD4F80E
:104124005841002CB8BF6442022C0DDD1844B3F989
:10413400443000225B42C0F82821C0F87031C0F836
:104144004021C0F8582170BD93F83960022E03D184
:10415400002A00F0D68028E040F28F8015B26C1C53
:1041640005D06A4C94F83840013CA5421DD1E1B118
:104174009A6C93F83B10524292FBF1F2184493F874
:104184003D40C0F82821B3F944200334A2EB820255
:1041940092FBF4F2C0F870211A6DDB6C524292FB70
:1041A400F1F25B42C0F8402122E0012A06D093F8E4
:1041B400384015B2C4F10104A5421CD1D9B193F819
:1041C4003B109A6C184492FBF1F293F83D40C0F80E
:1041D4002821B3F944200334A2EB820292FBF4F2C7
:1041E400C0F870211A6DDB6C92FBF1F2C0F840212B
:1041F40093FBF1F382E0052E3FD115B2AC1C1AD12A
:10420400D9B19A6C022192FBF1F218445242C0F8DF
:104214002821B3F9442092FBF1F25242C0F87021F4
:104224001A6DDB6C92FBF1F293FBF1F35242C0F88E
:1042340040215B4262E0022D05D093F83840C4F17E
:104244000204A54219D1C1B19A6C022192FBF1F288
:104254001844C0F82821B3F9442092FBF1F25242E9
:10426400C0F870211A6DDB6C92FBF1F293FBF1F153
:10427400C0F84021C0F8581170BD93F83A1012B23A
:104284008A4205D0214C94F83840091B8A4219D13E
:104294001A18D2F870111D4C002913DAA36C0221EC
:1042A40093FBF1F3C2F82831236D93FBF1F3C2F8C9
:1042B4004031E36C93FBF1F3C2F858310023C2F8A8
:1042C400703170BD93F83C20996C184491FBF2F462
:1042D400D0F82811091BC0F828110021C0F870116A
:1042E400196DDB6C91FBF2F493FBF2F2D0F8401100
:1042F400D0F85831091BC0F840119B1AC0F8583146
:1043040070BD00293FF453AF32E700BFEC0000203A
:1043140038B5274C94F8883113B994F86A301BB136
:10432400012384F824311CE0A36C002BB8BF5B424A
:10433400062B0EDC236D002BB8BF5B42062B08DC7A
:10434400E36C002BB8BF5B42062BD4BF00230123D0
:1043540000E00123164A84F8243113B993641365E9
:10436400D3640023124D84F81E3194F81E01104AC0
:10437400052807D8FFF7B0FE95F81E31013385F8FC
:104384001E31F2E792F8353092F838100133DBB27F
:10439400994282F835303CBF012382F8353094F8D5
:1043A4006A301BB1024A013B82F86A3038BD00BF53
:1043B400EC000020234B0621D3F88C216FF005007C
:1043C40092FBF1F2C3F88C21D3F8902192FBF1F225
:1043D400C3F89021D3F8942192FBF1F2C3F894210D
:1043E400D3F89821002ACCBFA2F5E16202F5E1627C
:1043F400C3F89821D3F89C2112F5E16FBEBF11498F
:1044040002F56162C1F89C21D3F8A02112F5E16F95
:10441400BEBF0C4902F56162C1F8A021D3F8A02106
:10442400D3F8981192FBF0F291FBF0F1C3F8A021BC
:10443400D3F89C21C3F89811062192FBF1F2C3F83A
:104444009C217047EC000020002870B580F29E800B
:1044540080B200F56161404200B24FF4616390FBA9
:10446400F3F3C3EB031202EBC21203EB4203A1EB1F
:10447400031318B283B2B3F5617F19D8052490FBF6
:10448400F4F5C0F5617090FBF4F0484B484903EB38
:104494004502567813F8152002EB0622A1F8A42150
:1044A40003EB4002527813F8103003EB022321E0AF
:1044B4006FF461715A18B2F5617F1ED20524C0F5FC
:1044C400E16393FBF4F3A0F5617090FBF4F0374AD9
:1044D400374902EB43056D7812F8133003EB0523DB
:1044E400A1F8A43102EB40035C7812F8103003EB1E
:1044F40004235B42A1F8A63170BD6FF4E1629A18FF
:10450400B2F5617F1ED2A0F5E161052591FBF5F1BD
:10451400C0F528600C3090FBF5F0244A244C02EBE3
:1045240041035E7812F8113003EB06235B42A4F8D2
:10453400A43102EB4003597812F8103003EB012345
:104544005B4220E0A3F68D23B3F5617F2CD2C0F546
:104554006161052591FBF5F1A0F68C2090FBF5F047
:10456400124A134C02EB41035E7812F8113003EB4C
:1045740006235B42A4F8A43102EB4003597812F8F5
:10458400103003EB0123A4F8A63170BD4FF461632E
:1045940090FBF3F3C3EB031202EBC21203EB4203EF
:1045A40000EB031000B265E770BD00BF5AA4000819
:1045B400EC00002042F210730028BDBF404200B25C
:1045C400012100219842A8BF184642F2273283B243
:1045D400934210B51B4A06D84F2390FBF3F01A4BB5
:1045E40000B2185C1BE0A3F50C54283CB4F5617FC1
:1045F40008D2A0F50C50144B283803EBE00090F8D7
:1046040072000CE0A3F51A532C3B642B0FD8A0F5D1
:104614001A500D4B2C3803EB600090F8E3004FF474
:104624001A7343430A2093FBF0F3A2F8A83131B183
:10463400B2F8A831C3F5F5433833A2F8A831B2F97A
:10464400A80110BDEC000020C4A500084FF0804371
:10465400834201D99B08FBE700224BB1D118884261
:1046640022BF801A02EB4302C01A52089B08F4E7E7
:104674001046704701FB01F370B500FB003306469A
:1046840042F2107058430D46FFF7E0FF094B0A4C05
:104694007343C4F8AC0193FBF0F000B2FFF78AFF58
:1046A400B4F8A821002DB8BF5242A4F8B021B4F93F
:1046B400B00170BD40420F00EC0000202DE9F8432A
:1046C40090462D4A5E0002F2C224A51902F2CE22BF
:1046D40014F813406D78164412F8133004EB0525D2
:1046E4007678264C03EB0626D4F894312DB2434455
:1046F400C4F89431D4F88C3129440B4436B2304494
:10470400C4F88C31D4F890310DB206B20344294672
:104714003046C4F89031FFF7ADFF47F6B7294FF4A0
:10472400E167784390FBF9F0D4F8983108F19608E2
:104734000FFA88F8034441463046C4F89831FFF72D
:1047440099FF784390FBF9F0D4F89C31A0F561709F
:104754001844C4F89C0141462846FFF78BFF784370
:1047640090FBF9F0D4F8A031A0F561701844C4F8B6
:10477400A001BDE8F88300BF18A40008EC000020E5
:104784002DE9F04F85B09DF838E0734D734E4FEA34
:104794004E07994605F2CE2303EB070C13F81E408F
:1047A400F36905F2C22523449CF801402F4403EB2E
:1047B40004231844336A15F81E501A44736A84B2E9
:1047C4002B447D78B06A03EB05231944D6F8A03155
:1047D4008DB2184400B21FFA82F8FFF735FED6F8FE
:1047E4009C31306BB6F8A4A1184400B2B6F8A67197
:1047F400FFF72AFEF06AD6F8982109EB89090244EA
:10480400B6F8A43102EB490000B2B6F8A6B103939E
:10481400FFF71AFE42F210734FF0640E24B22DB269
:104824000EFB05F50EFB04F4B6F9A6010FFA8BFB9B
:1048340000FB04F205FB0BF992FBF3F299FBF3F98D
:10484400B6F9A4C10FFA88F801920CFB09F90EFB22
:1048540008F24349029299FBF1F2BDF90C800392EC
:10486400019A3FB20BFB02F999FBF3F9039A0FFA91
:104874008AFA9144029A08FB02F292FBF3F24A4448
:10488400A21A92FBFEF2C6F8B42105FB00F20298CC
:1048940007FB04F900FB0BFB019899FBF3F908FBF8
:1048A40000F090FBF3F00CFB09F90AFB00F092FB1B
:1048B400F3F290FBF3F099FBF3F9814402FB07F068
:1048C40090FBF3F081440CFB05F090FBF3F008FB44
:1048D40000F090FBF3F00AFB00F09BFBF3FB90FB72
:1048E400F1F048440BFB0AF999FBF1F94844281A02
:1048F40090FBFEF07D4395FBF3F5C6F8B8010198F3
:104904000CFB04F478430CFB05FC94FBF3F490FBE0
:10491400F3F09CFBF3FC08FB00F00AFB04F402FB3D
:104924000AFA08FB0CF80BFB07F794FBF3F490FB73
:10493400F1F19AFBF3FA98FBF3F897FBF3F32144B4
:10494400514441441944029B591A91FBFEF1C6F8A3
:10495400BC1105B0BDE8F08F18A40008EC000020DD
:10496400F0D8FFFF2DE9F04F1D464F4E88466F00EB
:10497400114685B0FFF77EFEF3195A7816F8153004
:10498400DFF8289103EB022340F64542B9F9B01150
:10499400B424614391FBF2F10B44D9F8AC114FF00C
:1049A400640A91FBFAF14F449BB2A7F8D030A7F800
:1049B400C03106F10C035B5D4046C91A09B201928D
:1049C400FFF758FE42F2107806F1120313F805C0FF
:1049D40000900CFB0CF0183616F805E0D9F8ACB1D1
:1049E4000EFB1E0EC82000FB0BF00CFB00F090FB2E
:1049F400F8F00BFB0BF108FB0E1E9EFBF0F000B26F
:104A040003930291FFF7D6FD009B6FF0B30E0344AE
:104A14000EFB03F0019A16F805E090FBF2F000F2A9
:104A2400EE2080B2039BA7F8E800A7F8CC010EFBA8
:104A34000EF013F805C002990CFB0C0008FB00F003
:104A4400411A4FEA4C000EFB00F091FBF0F000B26B
:104A54000093FFF7AFFDB9F9A811019A4C4394FBF9
:104A6400F2F2009BA2F20E6292B2A7F8DC20A7F841
:104A7400D8215A5D735D1A44A2F11E039BB20AFB4E
:104A840003F39B454FF0010302D289F8E43107E0B8
:104A94000AFB02FAD34534BF89F8E53189F8E631D7
:104AA40005B0BDE8F08F00BFF2A60008EC000020BE
:104AB4005078127802EB002290B202B28A4208DCEB
:104AC40058781A7802EB00231BB29942A8BF194602
:104AD40088B200B2704739482DE9F04FDFF8E08022
:104AE400002300F10C0C00F1180700F1240E00F172
:104AF400300500F13C065A000CEB020191F801A0CC
:104B04001CF8131008EB020401EB0A2AB4F9D010C4
:104B14000FFA8AFA5145B8BF514600EB020999F8D9
:104B240001B010F8139009EB0B290FFA89F94945E4
:104B3400A8BF4946A4F8D0100EEB020191F801A0D9
:104B44001EF8131007EB020901EB0A2AB4F9E81066
:104B54000FFA8AFA5145B8BF514699F801B017F8CF
:104B6400139009EB0B290FFA89F94945A8BF494667
:104B7400A4F8E810A918324492F8019016F813200A
:104B840091F801A002EB0929B4F9DC200FFA89F9A4
:104B94004A45B8BF4A4615F81310013301EB0A2100
:104BA40009B28A42A8BF0A46DBB2062BA4F8DC206D
:104BB400A1D1034A82F81E31BDE8F08F10A7000886
:104BC400EC000020031F994207DA0B1A93FBF2F260
:104BD400002AB8BF5242501809E0031D994207DD6C
:104BE4000B1A93FBF2F2002AB8BF5242881A80B221
:104BF40000B2704708B5094BB3F878004FF6FF735D
:104C040098420AD1064BB3F90601B3F912315B435A
:104C140000FB0030FFF71AFD80B208BD0000002041
:104C2400EC000020B5282DE9F041044604D83328CF
:104C34008CBF0446342400E0B524184BB3F8782024
:104C4400A24228D0164F174EDFF85C80A3F87840B4
:104C540000257B195878EB5D03EB002000B2FFF7C9
:104C6400F3FB42F21070B6F9A6310E4A634393FB8C
:104C7400F0F302F583716B52B6F9A43102F5897130
:104C8400634393FBF8F36B5202350C2DE1D192F898
:104C9400383082F86A30BDE8F08100BF000000209F
:104CA400F2A60008EC000020F0D8FFFF7047704720
:104CB400094B5A696932A4BF6FF069025A6193F8CB
:104CC400E7313BB1044B00224FF6937083F8E721A0
:104CD400FFF7A8BF704700BFEC0000202DE9F84F94
:104CE400FEF7CAFAA34C0028237B40F3108223B9B1
:104CF4004FF0010884F80C8001E04FF0000894F9AB
:104D040071309C4A002B1FDA92F9E831002B1BDB2F
:104D140053790133DBB2032B537109D900234FF4C8
:104D2400FA613220537102F0DBFA40F6B83101E047
:104D34004FF4FA61322002F0D3FA6379032B1EBFD9
:104D44008C4BFF2283F8542094F87120894B12076E
:104D54001AD593F8E821170716D493F86520002A8A
:104D64000CBF0122002283F8652003D140F2DC51FC
:104D7400FA2007E04FF4FA61642002F0B1FA4FF42C
:104D84007A61322002F0ACFA94F87130794ADE0686
:104D940012D592F8E81101F0100101F0FF0059B9A1
:104DA400B2F900104FF001080029D6BF232110806A
:104DB4001180002284F86C2003F020036D4A94F9DA
:104DC4006E7094F96D6003F0FF0A002B50D092F9D5
:104DD4006F30192193FBF1F313F0FF030ED0B2F9F6
:104DE40000205BB21344002B04DD962BA8BF96234E
:104DF4009BB200E0002323804FF0010894F9703047
:104E040010214FF00A094FF0080A93FBF1F397FBC6
:104E1400F9F796FBFAF6002B1FFA87F91FFA86FAC0
:104E2400544A0ADAB2F86810E9B19BB2584280B227
:104E340081428CBF5B1800230CE014DDB2F86810CB
:104E4400B1F5FA6F0FD20B449BB2B3F5FA6F88BF7A
:104E54004FF4FA63A2F86830B4F86810322001F510
:104E64007A7102F03DFA002684F87060374600E05B
:104E7400D14662793F4B002A40F0978093F8712025
:104E8400D50736D593F8E821D00732D49A6C053289
:104E94000A2A2ED81A6D05320A2A2AD8DB6C002B6E
:104EA400DABF6FF0010253435B00052BCCBF002334
:104EB4000123F3B194F834302F4A013392F8762069
:104EC400DBB29A4284F834304FF4FA614FF0320086
:104ED40002D902F005FA0AE002F002FA40F6CA0129
:104EE400322002F0FDF9234B002283F83420FFF72F
:104EF4003FF894F871301F4D590617D595F8E831ED
:104F04005A0613D44FF4FA61322002F0E9F9AB796E
:104F14000133DBB203F00302AA7103F001029B0721
:104F24004CBF50233223EA71A5F8443094F8713011
:104F3400104A980715D592F8E83103F0020303F0FC
:104F4400FF0173B9137A32200133DBB2012B94BF12
:104F540013721172217AFA23594301F5FA6102F0AE
:104F6400BFF9227A034B4AB1012A12D193F96F2077
:104F740007E000BFEC000020000000207A429A64A1
:104F840072421A6593F97020042192FBF1F25242A5
:104F9400DA64E279664B42B9996C1A6D022091FB8E
:104FA400F0F192FBF0F299641A6562790023012A08
:104FB4005F4D638020D14FF0030B7800B5F91010DA
:104FC400042290FBFBF0FFF7FDFD28617000B5F9AA
:104FD4001810042290FBFBF0FFF7F4FDA86195F98B
:104FE40070000422B5F92C104000FFF7EBFD95F991
:104FF4006F30E862022209E0022A0CD195F9703080
:10500400AE625B00EB6295F96F302F6393FBF2F3B2
:105014005B426B8036E0032A34D195F87130D907AE
:1050240012D595F8E83113F0010B0DD14FF4FA6164
:10503400322002F055F995F85430042B9ABF01330D
:1050440085F8543085F854B094F96F30032293FBFB
:10505400F2F3143BE36594F87130354D5A06A765B5
:1050640026660FD595F8E8315B060BD44FF4FA6148
:10507400322002F035F995F86430B3FA83F35B0912
:1050840085F86430002EB8BF7642002FB8BF7F4247
:10509400BE42B8BF3E4694F97070B4F90020002FA8
:1050A400B8BF7F42BE42B8BF3E46B4F90230C6F133
:1050B4008006134423EAE37384F866606361B9F1FC
:1050C400000F02D1BAF1000F0FD094F86A3063B91F
:1050D400B9F1000F03D0164B012283F86C20FFF7BF
:1050E40089FD484480B2FFF79DFDB8F1000F04D05C
:1050F40094F86C300BB9FFF7DBFD94F8713084F849
:10510400E83102F0A1F9C4F8EC01BDE8F88F63B10D
:1051140002F09AF9D4F8EC31C01A40F2E243984212
:1051240003D9BDE8F84FFEF78EB8BDE8F88F00BF8D
:10513400EC0000207047FEE7FEE7FEE7FEE770475D
:105144007047704702F086B97047704770477047E0
:105154007047704770477047704770477047704793
:105164007047704770477047704770477047704783
:105174007047704770477047704770477047704773
:1051840002F0CAB97047704770477047704770475C
:105194007047704702F0B0BE704702F041BD7047DF
:1051A4007047704770477047704770477047704743
:1051B400704770477047704702F0B2BD7047704740
:1051C400704770477047704770B50D4C00232060DE
:1051D400261D4FF40071834209DA0A4A5D1C42F825
:1051E400231048329D5542F823102B46F3E7002341
:1051F40084F8A83002F028F9C4F8AC0070BD00BFF0
:105204006C0B0020840B0020014B18440171704783
:105214006C0B0020014B1844007970476C0B002084
:10522400014670B5427811F8013B094C03EB0223A7
:1052340044F8603B00229A4209D011F8016F10F83B
:10524400015F05EB062544F822500132F3E770BDF7
:105254006C0B002070B5094D00242E1D2B689C4258
:105264000BDA2421305D01F0B3FB054B43F8240035
:10527400192002F073F80134F0E770BD6C0B0020C4
:10528400840B00202DE9F041FE2001F0D9FA83209F
:1052940001F0DCFA1E21002001F0DEFA02210120D7
:1052A40001F0DAFA174F0224002507F118083868CC
:1052B40085421BDA144B58F82560595D2046B6B276
:1052C40001F0CAFA304601F005FB631C0146D8B26E
:1052D40001F0C2FA304601F0FFFAA31C0146033480
:1052E400D8B2013501F0B8FAE4B2E0E700EB4000CF
:1052F4000430C0B201F0B6FA01F016FBBDE8F0418B
:1053040001F098BA6C0B0020700B0020F8B5144F14
:10531400002497F8B05090FBF5F0451C02F094F887
:1053240097F8B0303E681844C7F8AC003946603787
:10533400B44210DA0B4857F8242050F824309C303B
:105344009A428CBFD31A9B1AB3FBF5F3013340F88E
:1053540024300134ECE7012381F8A830F8BD00BF04
:105364006C0B0020840B00202DE9F0412A4D95F8A8
:10537400A8302C46002B4BD02E6868B902F064F894
:10538400D5F8AC300A3B984206D202F05DF8D5F865
:10539400AC30C01ABDE8F08102F056F8D4F8AC3055
:1053A4001D4D9842F8D302F04FF895F8B03005F14E
:1053B400600C18442B4653F814EBC5F8AC000020DD
:1053C400B43570451ADA5CF8207053F8042F4FEAAC
:1053D4008008B91A002905D055F8088006DD414532
:1053E40002DA1F60013E07E0424404E049424145BD
:1053F400F7DBC8EB02021A600130E2E7002EDCBFE3
:10540400002384F8A830FFF73DFF0020BDE8F081B9
:105414001846BDE8F08100BF6C0B002010B5094BA5
:10542400196800238B420ADA064A141D1C5D844263
:1054340003D102EB8303986910BD0133F2E74FF007
:10544400FF3010BD6C0B002010B5094B1968002308
:105454008B420ADA064A141D1C5D844203D102EB16
:105464008303186E10BD0133F2E74FF0FF3010BD17
:105474006C0B0020084B30B51C680023A3420ADAE9
:10548400054A151D5D5D854203D102EB8303196650
:1054940030BD0133F2E730BD6C0B0020034B1A68BA
:1054A4008242C4BF03EB8003196670476C0B002073
:1054B40070B50E46C5B204460321284601F058FAD9
:1054C400002E51D084423ED1284801F04BFC2046A6
:1054D40001F04AFC264801F045FC0021284601F071
:1054E40077FA044601F0A6F9830701D401F0C2FC5F
:1054F400204601F039FC0C2C01D11E4817E0122C77
:1055040001D11D4813E00D2C01D11C480FE0D42C0F
:1055140001D11B480BE044F20B339C4201D11948E2
:1055240005E01D2C01D1184801E014B9174801F019
:1055340019FC0F4801F016FC0221284601F018FA64
:1055440001F012FC0BE0124801F00CFC204601F0C3
:105554000BFC074801F006FC0E4801F003FCBDE813
:1055640070400D4801F0FEBB70BD00BF00AC0008E8
:1055740002AC000805AC00080EAC000817AC00082B
:1055840020AC00082AAC000834AC00083DAC00088C
:105594004CAC000856AC000848AC00080021F8B533
:1055A4000846FFF785FF00254FF400776E1C0E4C6C
:1055B40001213046FFF77CFF231DEE5404F118034C
:1055C40043F82570122E04F1600343F82570354624
:1055D400ECD1212384F8B030002384F8A83001F002
:1055E40033FFC4F8AC00F8BD6C0B002070B5C0B23A
:1055F4000D4601F025F9022001F028F900210846A2
:1056040001F02AF93121012001F026F9042001F0EA
:1056140029F901F089F901F00DF901F02BFC05F0ED
:10562400DB03412BC6B240F00481002E00F0108150
:10563400894C8A4801F096FB894801F093FBA179D3
:10564400607901F043F901F0C3FB864801F08AFB5D
:10565400E07901F0E7FB844801F084FB207A01F053
:10566400E1FB824801F07EFB607A01F0DBFB8048BD
:1056740001F078FBA07A01F0D5FB7E4801F072FBC3
:10568400217BE07A01F022F901F0A2FB7A4801F0D3
:1056940069FBA17B607B01F019F901F099FB774864
:1056A40001F060FB207C01F0BDFB754801F05AFB62
:1056B400A07C01F0B7FB734801F054FB607C01F05F
:1056C400B1FB714801F04EFB217DE07C01F0FEF856
:1056D40001F07EFB6D4801F045FB607D01F0A2FB0B
:1056E4006B4801F03FFBA07D01F09CFB694801F091
:1056F40039FBE07D01F096FB674801F033FB722D26
:1057040002D0522D40F09C80534C644801F02AFB97
:10571400634801F027FB607F01F084FB614801F0DE
:1057240021FBA07F01F07EFB5F4801F01BFBE07FC3
:1057340001F078FB5D4801F015FB94F8200001F0BE
:1057440071FB5B4801F00EFB94F8210001F06AFB49
:10575400584801F007FB94F8220001F063FB564817
:1057640001F000FB94F8241094F8230001F0AEF843
:1057740001F02EFB514801F0F5FA94F8261094F844
:10578400250001F0A3F801F023FB4D4801F0EAFAEB
:1057940094F8281094F8270001F098F801F018FB09
:1057A400484801F0DFFA94F82A1094F8290001F02F
:1057B4008DF801F00DFB444801F0D4FA94F82C1054
:1057C40094F82B0001F082F801F002FB3F4801F04D
:1057D400C9FA94F82E1094F82D0001F077F801F02E
:1057E400F7FA3B4801F0BEFA94F82F0001F01AFBD7
:1057F400384801F0B7FA94F8300001F013FB36484A
:1058040001F0B0FA94F8310001F00CFB334801F0D8
:10581400A9FA94F8330001F005FB314801F0A2FA2B
:1058240094F8340001F0FEFABDE870401A4801F023
:1058340099BA722D08D0522D02D105E0522D0AD00A
:1058440005F0DF05412D06D1002E7FF45DAF70BD5C
:10585400722DF3D170BD70BD871D002060AC0008AF
:105864006BAC000873AC00087FAC000885AC000882
:105874008DAC00089CAC0008ACAC0008BDAC0008C2
:10588400CBAC0008D9AC0008E7AC0008F4AC0008C5
:1058940009AD000815AD000826AD00082AAD0008C2
:1058A40032AD000842AD000849AD000855AD00080E
:1058B40062AD00086DAD000879AD000889AD00083F
:1058C40098AD0008A7AD0008BAAD0008CAAD00083D
:1058D400D9AD0008E4AD0008ECAD000801AE000845
:1058E4000BAE000808B5174801F03CFA164801F061
:1058F40039FA164801F036FA154801F033FA15481A
:1059040001F030FA144801F02DFA144801F02AFA93
:10591400134801F027FA134801F024FA124801F061
:1059240021FA124801F01EFA114801F01BFA11483D
:1059340001F018FA104801F015FABDE808400F48C4
:1059440001F010BA13AE00081DAE00083CAE00080A
:105954005AAE00087AAE00088CAE0008A3AE000868
:10596400BEAE0008D8AE0008F0AE000808AF0008CC
:1059740029AF00084BAF000878AF0008A6AF0008B5
:105984002DE9F0470024A0462746A246A146204D13
:10599400204E85F8FC4001211E4802F09FF933781F
:1059A400232B2FD0BAF1000F08D1A3F1300209EB59
:1059B40002031FFA83F94FF0010AECE74FB909EB30
:1059C4008909A3F1300202EB49031FFA83F9012785
:1059D400F1E7B8F1000F0AD109EB8909A3F130020C
:1059E40002EB49031FFA83F94FF00108E3E7002CA7
:1059F400E1D109EB8909303B03EB49031FFA83F931
:105A04000124D8E7012385F8FC304846BDE8F08737
:105A14006C0B00200B2600202DE9F8430027B84624
:105A2400B9463C46184D194E85F8FC7001211748BB
:105A340002F054F93378232B20D0B9F1000F05D1AB
:105A4400303B1C44E4B24FF00109EFE7B8F1000F1A
:105A540009D104EB8404303B03EB440404F0FF0459
:105A64004FF00108EFE7002FEDD104EB8404303B45
:105A740003EB440404F0FF040127E4E7012385F861
:105A8400FC302046BDE8F8836C0B00200B26002078
:105A9400522910B504464FD1312A3CD1492B60D04C
:105AA400542B04D1AF4801F05DF92B2199E0522B1E
:105AB4007FD0532B00F09180512B04D1AA4801F0E0
:105AC40051F918218DE0572B04D1A84801F04AF967
:105AD4001A2186E0582B00F0A280592B09D1A44842
:105AE40001F040F91C21204600F042FF01F09AF930
:105AF40005E15A2B00F0AB80412B04D19D4801F005
:105B040031F91121EFE7422B40F02A819A4801F044
:105B140029F91221E7E7322A40F022814D2B00F0C7
:105B2400AC80512B00F0BC80502B00F0CC80472B74
:105B340040F016819148DAE0572940F01181312A6A
:105B440040F08A80492B11D1FFF766FF8C4B024647
:105B540093F8FC30002B00F003810321204600F071
:105B640025FF884801F0FEF803213AE0542B11D1B7
:105B7400FFF752FF824B024693F8FC30002B00F0F3
:105B8400EF800B21204600F011FF7F4801F0EAF876
:105B94000B2126E0522B11D1FFF73EFF784B024632
:105BA40093F8FC30002B00F0DB800521204600F048
:105BB400FDFE764801F0D6F8052112E0532B19D1E9
:105BC400FFF72AFF6E4B024693F8FC30002B00F0DF
:105BD400C7801021204600F0E9FE6D4801F0C2F8AC
:105BE4001021204600F0C4FE01F01CF9694801F0C0
:105BF400B9F810BD512B00F08780572B00F094802A
:105C0400582B11D1FFF708FF5D4B024693F8FC3087
:105C1400002B00F0A5801B21204600F0C7FE5E4843
:105C240001F0A0F81B215EE7592B00F08D805A2B60
:105C340040F09680FFF7F0FE514B024693F8FC309B
:105C4400002B00F08D801D21204600F0AFFE53484C
:105C540001F088F81D2146E7322A40F081804D2B5F
:105C640010D1FFF78DFE464B024693F8FC30002B13
:105C740076D02021204600F0CFFE494801F072F88A
:105C8400202137E0512B10D1FFF77AFE3C4B02461E
:105C940093F8FC30002B63D00E21204600F0BCFEAC
:105CA400404801F05FF80E2124E0502B10D1FFF79B
:105CB40067FE334B024693F8FC30002B50D0302162
:105CC400204600F0A9FE384801F04CF8302111E0DC
:105CD400472B45D1FFF754FE294B024693F8FC307D
:105CE400002B3DD020461E2100F096FE2F4801F0E7
:105CF40039F81E21204600F06BFE01F069F8BDE87A
:105D04001040244801F02EB8FFF786FE1C4B0246D3
:105D140093F8FC3023B31821204600F047FE1248C4
:105D240001F020F81821DEE6FFF776FE144B024658
:105D340093F8FC30A3B11A21204600F037FE0B483B
:105D440001F010F81A21CEE6FFF766FE0C4B02466E
:105D540093F8FC3023B11C21204600F027FEBEE658
:105D640010BD00BFC0AF000800B0000811B00008AB
:105D740029B000083FB000084BB0000880B000080C
:105D84006C0B0020BBAF000890B00008D6AF000831
:105D9400EAAF000816AA000810B0000828B00008EE
:105DA4005CB000086BB0000878B00008ACB0000824
:105DB400044B18885B8880B29BB2C01A18BF0120BC
:105DC400704700BFA414002008480188438889B2A2
:105DD4009BB29942054AF8D013889BB213441879B0
:105DE400138801339BB21380704700BFA4140020B2
:105DF400F8B5434C94F82500C0B201287FD094F83C
:105E04002630082B0CD8C3F1090104F127001844EB
:105E1400C9B201F0E3FE94F82630184484F8260051
:105E240094F82650012D2ED9364900226E1E11F801
:105E3400010BD3B2FF2804D1964202DD087855281D
:105E440006D00132D0B201338542DBB2EFD800E094
:105E5400CBB19D4206D1631993F82630FF2B0ED1A6
:105E64006A1ED3B21A46AA420AD2A11891F8270090
:105E7400D11A2144013281F82700D2B2F3E72B462C
:105E8400EB1A84F8263094F826201D4B092A33D1C6
:105E940093F82720FF2A2AD193F82820552A26D1BF
:105EA40093F82B6093F82C5093F8290093F82A1058
:105EB40083F83350354493F82D2083F83000284478
:105EC40093F82E7083F83110014483F834200A4487
:105ED40083F83570D2B293F82F70C2F1FF02974263
:105EE40008BF012283F8326008BF83F8252000230D
:105EF40084F8273084F8263094F82500C0B2F8BD21
:105F0400A4140020CB14002070B52C4C94F8250068
:105F1400C0B2012850D094F82630082B0CD8C3F115
:105F2400080104F127001844C9B201F057FE94F89F
:105F34002630184484F8260094F82650012D2ED9D2
:105F44001F4900226E1E11F8010BD3B2FF2804D1A1
:105F5400964202DD0878552806D00132D0B20133CA
:105F64008542DBB2EFD800E0CBB19D4206D1631984
:105F740093F82630FF2B0ED16A1ED3B21A46AA42DA
:105F84000AD2A11891F82700D11A2144013281F8CC
:105F94002700D2B2F3E72B46EB1A84F8263094F8A4
:105FA4002620064B092A94F8250002BF002283F814
:105FB400272083F82620C0B270BD00BFA41400209F
:105FC400CB140020014B93F834007047A414002034
:105FD400024B002083F82500704700BFA414002062
:105FE400024B93F83200803840B27047A41400206A
:105FF400024B93F83300803840B27047A414002059
:10600400024B93F83000803840B27047A41400204B
:10601400024B93F83100803840B27047A41400203A
:1060240008B501F0FBFC003018BF012008BD01F0E9
:1060340021BD0A2810B5044603D10D2001F02CFD22
:10604400204601F029FD204610BD38B5054604461A
:10605400601B14F8013B1BB11846FFF7EAFFF7E792
:1060640038BD08B50A2001F00BFD01F00DFD40B16B
:1060740001F094FD50B101F01DFD0D2808BF0A2068
:1060840008BD01F08BFD0028EFD0F1E7FF2008BD2B
:10609400F8B50446064600F18007351BBE42EDB252
:1060A40021D00A2001F0ECFC01F0EEFC18B101F063
:1060B40075FD50B904E001F071FD0028F4D0F6E755
:1060C4000DB90020F8BD60550DE001F0F3FC0A287D
:1060D40004D1002DF5D00023635504E00028F8D046
:1060E40006F8010BD9E72046F8BD10B50446600751
:1060F40002D51448FFF7A9FF210702D51248FFF77C
:10610400A4FFE20602D51148FFF79FFFA30602D5BC
:106114000F48FFF79AFF600602D50E48FFF795FF78
:10612400A10502D50C48FFF790FF620502D50B4884
:10613400FFF78BFFE30404D5BDE810400848FFF7E0
:1061440084BF10BDBCB00008EEB0000822B1000846
:106154004FB1000878B10008B7B10008E5B10008F4
:1061640011B2000808B5012000F082FB012802D119
:106174001A48FFF76AFF022000F07AFB012802D1D7
:106184001748FFF762FF042000F072FB012802D1D8
:106194001448FFF75AFF082000F06AFB012802D1D7
:1061A4001148FFF752FF102000F062FB012802D1D2
:1061B4000E48FFF74AFF202000F05AFB012802D1C5
:1061C4000B48FFF742FF402000F052FB012804D1A6
:1061D400BDE808400748FFF738BF08BD45B20008CE
:1061E4005CB2000871B2000883B2000899B20008DA
:1061F400ABB20008BDB20008FFF71BBFFFF725BF15
:10620400FFF72FBFFFF744BF30B5164985B00446EA
:10621400002301A80A25B4FBF1F201FB124402F0A9
:106224000F0230321A5401330A2BB1FBF5F1F2D1CB
:1062340004A9002201F8022D9DF80420302A07D079
:10624400013B13F0FF03F7D1FFF7FFFE05B030BDAC
:10625400024612F8014F02F8014C002CF0D08A4299
:10626400F7D1EDE700CA9A3B7FB52B2304AA174C5C
:1062740002F80C3D00210A25B0FBF4F3561804FB88
:106284001300013103F00F0330330A297370B4FB98
:10629400F5F4F1D1002304A800F8013D0B239DF887
:1062A4000410302908D0013B13F0FF03F7D1104646
:1062B400FFF7CBFE04B070BD114611F8014F01F891
:1062C400014C002CEFD08142F7D1ECE700CA9A3B95
:1062D40007B530238DF8003078238DF80130002382
:1062E4008DF80630030B03F13002392A84BF3733AB
:1062F4008DF80230C0F3032398BF8DF8022003F118
:106304003002392A84BF37338DF80330C0F30313C6
:1063140098BF8DF8032003F13002392A00F00F00F2
:1063240084BF37338DF8043000F1300398BF8DF803
:106334000420392B84BF37308DF80500684698BF98
:106344008DF80530FFF781FE03B05DF804FB07B557
:1063540030238DF8003078238DF8013000238DF838
:106364000430030903F13002392A00F00F0084BF1E
:1063740037338DF8023000F1300398BF8DF80220D6
:10638400392B84BF37308DF80300684698BF8DF8E9
:106394000330FFF75AFE03B05DF804FB38B56424FC
:1063A400B0FBF4F4054604F13000C0B201F074FB14
:1063B40004EB8403C4EBC30405EB8404E4B20A25B0
:1063C400B4FBF5F505F13000C0B201F065FBC5EB97
:1063D4004510C5EB8000303404EB4000C0B2BDE88A
:1063E400384001F059BB2DE9F0410027054642F23F
:1063F40010763C46B5FBF6F8B8F1000F03D008F16F
:106404003000C0B201E027B1302001F045FB012784
:1064140005E0042C14BF2020302001F03DFB06FBD6
:1064240018550134E4B20A23052CADB2B6FBF3F6D9
:10643400E0D1BDE8F0812DE9F0410026074634465D
:10644400104DB7FBF5F8B8F1000F03D008F1300098
:10645400C0B201E026B1302001F01EFB012605E0A8
:10646400032C94BF2020302001F016FB01340A23B2
:10647400E4B29C4205FB1877B5FBF3F5E1D1BDE826
:10648400F08100BF00CA9A3B2DE9F843041EBDBF4A
:10649400644264B24FF001084FF000084FF0030962
:1064A4006427002694FBF7F5ABB26BB12EB9B8F1B3
:1064B400000F02D02D2001F0EFFA05F13000C0B238
:1064C40001F0EAFA012604E0002EF6D1202001F0C2
:1064D400E3FA05FB17440A23B7FBF3F709F1FF338B
:1064E40013F0FF0964B2DDD1BDE8F8832DE9F0476C
:1064F4004FF0000A42F210775646041EBDBF6442B4
:1065040024B24FF001094FF0000994FBF7F51FFA8C
:1065140085F8B8F1000F09D0BAF1000F09D1B9F12B
:10652400000F06D02D2001F0B7FA02E0BAF1000FF7
:1065340007D005F13000C0B201F0AEFA4FF0010A05
:1065440005E0042E14BF2020302001F0A5FA07FB3B
:1065540018440136F6B20A23052E24B2B7FBF3F72A
:10656400D3D1BDE8F0872DE9F041041E03DA2D20D4
:10657400644201F091FA0F4D092600230A2794FB87
:10658400F5F010F0FF0800D123B13030C0B201F0B3
:1065940083FA0123013E16F0FF0605FB184495FB20
:1065A400F7F5ECD194FBF5F0BDE8F0413030C0B222
:1065B40001F072BA00CA9A3B08B501F0F3FB30B19E
:1065C400034B02221A80034B00221A70012008BDDB
:1065D4007C000020E41C002001F010BCF8B52E4B18
:1065E4001A781C46012A55D0012219791A702B4AAF
:1065F4000020A2291080154604D9118889B241F0DF
:1066040010010BE05E79771E052F0AD9832E08D07E
:106614000E2E06D0118889B241F020011180187025
:10662400F8BDFF2300206370A3700346C2B29142F9
:1066340000F1010004DB2244D2781344DBB2F5E715
:10664400DB4321440B712B8823F4657323F003038C
:10665400DB04DB0C0BB101F0D7FB24790E4E0434C0
:10666400E4B22146701C01F0E5FB844207D02B887C
:106674009BB243F004032B8000233370F8BD73797D
:10668400022B09BFF07906200630C0B201F028FCC5
:1066940001232B80F8BD00BFE41C00207C000020F7
:1066A4002DE9F041614B1A781C46002A00F0BC80A9
:1066B40001221A70DA785E4DFE2A05D102222A8060
:1066C40000221A70BDE8F0812B88584EDB0741BFC9
:1066D400002384F8A130062384F8A23094F8A100A2
:1066E40094F8A21006F1A307091AC9B2384401F0BC
:1066F400CBFB94F8A130184494F8A230C0B2834282
:1067040084F8A10008D894F8A1200021501EA2F119
:10671400020E04EB000C19E001F0E6FB0128F2D1B3
:1067240096F8A13013B94FF4806301E04FF400638D
:106734002B8000232370BDE8F081E61896F8A3802F
:10674400B8F1FF0F06D073450DD00131CBB28342AF
:10675400F3DB03E096F8A460FF2EF4D1B3B1D21AB0
:106764000020234404E09CF8A360FF2EEDD1F5E75C
:10677400C1B2914200F1010006DA5E1896F8A360F6
:10678400214481F8A360F3E784F8A12094F8A100E0
:1067940094F8A230254E834226D8F27896F8A53094
:1067A4009A4205D048232B8000233370BDE8F08142
:1067B40096F8A6100431C9B2884286F8A21004D310
:1067C400002094F8A620034613E0091AC9B23844FD
:1067D40001F05AFB96F8A130184496F8A230C0B2E2
:1067E400834286F8A100EBD94FF400732B80BDE8F7
:1067F400F081C1B2914200F1010005DC214491F81D
:10680400A5100B44DBB2F4E7DB43144494F8A62050
:10681400DBB29A4218BF41F2080204494FF0000368
:1068240008BF02222A800B70BDE8F081E41C00201E
:106834007C000020014B188880B270477C00002047
:10684400014BD870704700BFE41C0020014B587105
:10685400704700BFE41C0020014B1844817170474D
:10686400E41C0020014B1871704700BFE41C002099
:10687400064B1B881B0707D4054B93F8A730184217
:1068840014BF012000207047802070477C00002046
:10689400E41C0020044B1B881B075ABF034B93F8CE
:1068A400A6000020704700BF7C000020E41C0020EC
:1068B400044B1B881B075DBF034BC01890F8A8004E
:1068C400002070477C000020E41C002000EB012025
:1068D40080B27047C0B27047000A704710B5114AC1
:1068E40092F8A61010464B1E4E2B4FF0000302D810
:1068F40003311C460CE082F8A33082F8A43082F8FD
:10690400A53082F8A63082F8A73082F8A83010BDEE
:10691400DAB2914203F1010303DB024482F8A3409B
:10692400F6E710BDE41C002010B5FFF757FE084B36
:106934001A881C4612F0010F09D0FFF7CFFFFFF7AA
:10694400AFFE322000F0ECFC23889B05F7D410BD89
:106954007C00002005490A78044B002AFBD101225F
:106964005A710222D8701A71FFF7DEBFE41C0020AE
:1069740038B50C4A13780B4C03F0FF05002BF9D102
:10698400022363710123E3710423E0702371A17175
:10699400FFF7CAFF044B1B881B0758BF94F8A85085
:1069A400284638BDE41C00207C00002030B4074D8C
:1069B4002C78064B002CFBD1D870DA71032004220A
:1069C400587199711A7130BCFFF7AEBFE41C0020F6
:1069D40038B50F4A13780E4D03F0FF04002BF9D19C
:1069E40002236B71EB710423E8702B71A971FFF71B
:1069F4009BFF084B1B881B075FBF95F8A90095F800
:106A0400A83003EB002080B248BF204638BD00BF49
:106A1400E41C00207C00002030B4084D2C78074B87
:106A2400002CFBD1DA71120AD8701A7203200522E5
:106A3400587199711A7130BCFFF776BFE41C0020BD
:106A440000221146FFF7B2BF10B5821C0023141AAE
:106A5400A14203DD12F8014B2344F8E7D843C0B246
:106A640010BD00BF08B501F0DDF828B1034B0022CA
:106A74001A705A801A71012008BD00BF0626002032
:106A840001F004B907B5C3B2000A8DF80400C0438D
:106A94008DF80230DB43FF228DF800208DF80500CD
:106AA4005522062168468DF803308DF8012001F047
:106AB400FDF8831F5842584103B05DF804FB70B5DC
:106AC400304C2078C0B201285AD02379052B09D83C
:106AD400C3F10601601D1844C9B201F0FFF823791F
:106AE400184420712579012D2AD9274900226E1EC8
:106AF40011F8010BD3B2FF2804D1964202DD0878C5
:106B0400552806D00132D0B201338542DBB2EFD82A
:106B140000E0ABB19D4205D163191B79FF2B0CD169
:106B24006A1ED3B21A46AA4208D2A1184879D11AC9
:106B3400214401324871D2B2F5E72B46EB1A237196
:106B44002279104B062A19D15A79FF2A13D19A793E
:106B5400552A10D11A7AD979D243D2B291420AD1A4
:106B64009A7A587AD243D2B2904201BF01EB002103
:106B7400012259801A700023637123712078C0B2F6
:106B840070BD00BF062600200B260020024B002209
:106B94001A705888704700BF06260020F8B5354C97
:106BA4002078C0B2012863D02379082B0AD8C3F116
:106BB400090104F10B001844C9B201F08FF82379DC
:106BC400184420712579012D2AD92B4900226E1EE3
:106BD40011F8010BD3B2FF2804D1964202DD0878E4
:106BE400552806D00132D0B201338542DBB2EFD84A
:106BF40000E0ABB19D4205D163199B7AFF2B0CD108
:106C04006A1ED3B21A46AA4208D2A118C87AD11A67
:106C140021440132C872D2B2F5E72B46EB1A237134
:106C24002279144B092A21D1DA7AFF2A1BD11A7B43
:106C3400552A18D1DE7B1D7C587B997BDD75354444
:106C44005A7C187528449F7C597501441A760A4465
:106C54005F76D2B2DF7CC2F1FF02974208BF012205
:106C64009E7508BF1A700023E37223712078C0B2A6
:106C7400F8BD00BF0626002011260020014B987D98
:106C8400704700BF06260020014BD87D704700BF27
:106C940006260020014B187D704700BF0626002001
:106CA400014B587D704700BF06260020014B187E1B
:106CB400704700BF06260020014B00201870704763
:106CC40006260020024B987D803840B2704700BFF2
:106CD40006260020024BD87D803840B2704700BFA2
:106CE40006260020024B187D803840B2704700BF52
:106CF40006260020024B587D803840B2704700BF02
:106D040006260020034B987EDB7EC01A18BF0120A4
:106D1400704700BF06260020014608B5044803F06A
:106D24004AF84021024803F0A1F80028F9D008BD30
:106D3400005000400A2810B5044603D10D20FFF787
:106D4400EBFF2046FFF7E8FF204610BD38B50546A7
:106D54000446601B14F8013B1BB11846FFF7EAFF19
:106D6400F7E738BDFFF7F2BF30B5184985B00446E0
:106D7400002301A80A25B4FBF1F201FB124402F03E
:106D84000F0230321A5401330A2BB1FBF5F1F2D160
:106D940004A9002201F8022D9DF80420302A0AD00B
:106DA400013B13F0FF03F7D1FFF7D0FF0A2000F0F7
:106DB400D5FA05B030BD024612F8014F02F8014C75
:106DC400002CEDD08A42F7D1EAE700BF00CA9A3B13
:106DD4002DE9F0410027054642F210763C46B5FB0A
:106DE400F6F8B8F1000F03D008F13000C0B201E0AA
:106DF40027B13020FFF790FF012705E0042C14BFD2
:106E040020203020FFF788FF06FB18550134E4B238
:106E14000A20052CADB2B6FBF0F6E0D1BDE8F04196
:106E240000F09CBA70B56424B0FBF4F4054604F198
:106E34003000C0B2FFF770FF04EB8403C4EBC3045B
:106E440005EB84040A26E4B2B4FBF6F505F1300040
:106E5400C0B2FFF761FFC5EB4510C5EB80003034CD
:106E640004EB4000C0B2FFF757FF3046BDE8704066
:106E740000F074BA70B500F00404A4B20D463CB13D
:106E84001848FFF763FF2846FFF7CCFF002070BDCA
:106E940000F00806B6B20EB11348F2E700F0100491
:106EA400A4B20CB11148ECE700F02006B6B20EB162
:106EB4000F48E6E700F04004A4B20CB10D48E0E747
:106EC40000F40076B6B20EB10B48DAE700F4806441
:106ED400A4B20CB10948D4E7C30401D50848D0E7EB
:106EE400012070BDBDB00008EFB0000823B1000858
:106EF40050B1000879B10008B8B10008E6B1000843
:106F040012B200082DE9F041002607463446124D1E
:106F1400B7FBF5F8B8F1000F03D008F13000C0B2A8
:106F240001E026B13020FFF7F7FE012605E0032C2F
:106F340094BF20203020FFF7EFFE01340A23E4B28F
:106F44009C4205FB1877B5FBF3F5E1D12046BDE87B
:106F5400F04100F003BA00BF00CA9A3B2DE9F843A0
:106F6400041EBDBF644264B24FF001084FF0000834
:106F74004FF003096427002694FBF7F5ABB26BB11D
:106F84002EB9B8F1000F02D02D20FFF7C5FE05F190
:106F94003000C0B2FFF7C0FE012604E0002EF6D197
:106FA4002020FFF7B9FE05FB174409F1FF330A203F
:106FB40013F0FF0964B2B7FBF0F7DDD1BDE8F84385
:106FC40000F0CCB92DE9F0474FF0000A42F21077F7
:106FD4005646041EBDBF644224B24FF001094FF06F
:106FE400000994FBF7F51FFA85F8B8F1000F09D0F2
:106FF400BAF1000F09D1B9F1000F06D02D20FFF727
:107004008BFE02E0BAF1000F07D005F13000C0B2E8
:10701400FFF782FE4FF0010A05E0042E14BF202082
:107024003020FFF779FE07FB18440136F6B20A2038
:10703400052E24B2B7FBF0F7D3D1BDE8F04700F03A
:107044008DB910B504460120FFF712FC012805D1C3
:107054002046FFF7E7FE2448FFF784FE0220FFF7EF
:1070640007FC012805D12046FFF7DCFE1F48FFF787
:1070740079FE0420FFF7FCFB012805D12046FFF729
:10708400D1FE1B48FFF76EFE0820FFF7F1FB012835
:1070940005D12046FFF7C6FE1648FFF763FE102011
:1070A400FFF7E6FB012805D12046FFF7BBFE124897
:1070B400FFF758FE2020FFF7DBFB012805D120460F
:1070C400FFF7B0FE0D48FFF74DFE4020FFF7D0FB61
:1070D400012807D12046FFF7A5FEBDE81040084867
:1070E400FFF740BE10BD00BF45B200085CB2000807
:1070F40071B2000883B2000899B20008ABB200086C
:10710400BDB20008012810B5044601D0042810D1EE
:1071140002212D4801F0DDFB04212B4801F0DBFBAB
:10712400052000F0FDF8012C01D1214614E00121D5
:107134001AE0022801D0052821D10221224801F0B9
:10714400CAFB0421204801F0C4FB052000F0E8F844
:10715400022C4FF0010107D11C4800F099FF0520D3
:1071640000F0DEF8194806E0194800F091FF052008
:1071740000F0D6F81648BDE8104000F0F7BF062826
:107184001ED1072301220D21104800F09FFF052086
:1071940000F0C6F801210D4800F07AFF052000F048
:1071A400BFF80A4800F0E2FF0446072301220A213F
:1071B400064800F08BFF052000F0B2F8204610BD11
:1071C4004FF4004010BD00BF0010014000240140F6
:1071D40000280140064AC300134421B1998852F89B
:1071E400300001F076BB998852F8300001F073BB8F
:1071F4008000002010B5044608B103281FD10221E5
:10720400104801F068FB04210E4801F064FB0520DE
:1072140000F086F801213CB90B4800F039FF052045
:1072240000F07EF8084806E0084800F031FF052029
:1072340000F076F80548BDE8104000F097BFBDE8BF
:1072440010405FE700100140002401400028014085
:1072540070B50646104B4400E4B203EBC402651C4F
:10726400918853F83400EDB201F033FB0021284635
:10727400FFF7B0FF192000F053F83046FFF7BAFFCC
:10728400064600212046FFF7A5FF28460021FFF708
:10729400A1FF304670BD00BF8000002008B5062065
:1072A400FFF730FFC0F30F10722817D864214FF492
:1072B400FA7000F015F841F288314FF4FA7000F0DA
:1072C4000FF864214FF4FA7000F00AF8BDE80840A2
:1072D40041F288314FF4FA7000F002B808BD00BFE3
:1072E40038B50C4600F052F8094D2B6873B14021B3
:1072F400084801F0F0FA204600F012F84021054851
:1073040001F0E7FA204600F00BF8EEE738BD00BFC5
:107314005C2E0020000801401141FFF7E1BF00BFCF
:1073240010B50D4C23681BB923790133DBB22371EB
:10733400092885BF0A23B0FBF3F00123206098BF1E
:1073440023602079C0B2012801D101F0D1FE236865
:10735400002BFCD110BD00BF502E00204FF47A73D7
:107364005843FFF7DDBF084B9A681AB91A790132FE
:10737400D2B21A716422504398601879C0B20128BD
:1073840001D101F0B5BE7047502E0020084BDA68D9
:107394001AB91A790132D2B21A7164225043D860F0
:1073A4001879C0B2012801D101F0A2BE704700BF14
:1073B400502E00200B4B1A691AB91A790132D2B235
:1073C4001A71092885BF0A22B0FBF2F00122186164
:1073D40098BF1A611879C0B2012801D101F088BEA2
:1073E400704700BF502E0020014B5861704700BF0A
:1073F400502E0020024B5869B0FA80F040097047C3
:10740400502E00200B4B9A691AB91A790132D2B264
:107414001A71092885BF0A22B0FBF2F00122986193
:1074240098BF9A611879C0B2012801D101F060BEF9
:10743400704700BF502E0020024BD8696423B0FB74
:10744400F3F07047502E0020014B186A704700BFBC
:10745400502E00202F4B10B51A68012A1A6802D941
:10746400013A1A6007E032B11A68013A1A601A79CF
:10747400013AD2B21A719968264A0129916802D94F
:107484000139916007E031B1916801399160117956
:107494000139C9B21171D9681E4A0129D16802D9CA
:1074A4000139D16007E031B1D1680139D160117976
:1074B4000139C9B211711969164A0129116902D930
:1074C4000139116107E031B1116901391161117993
:1074D4000139C9B2117199690E4A0129916902D918
:1074E4000139916107E031B19169013991611179F3
:1074F4000139C9B211711B7903F0FF0443B96FF06C
:10750400010001F0F5FD2046BDE8104001F0F0BD9A
:1075140010BD00BF502E002010B502214FF0804056
:1075240002F020FBC8B10D4C0221236A4FF08040C9
:107534000133236202F021FB4FF0804002F0F5FAA0
:107544006062616A4FF08040643189B202F024FACB
:10755400636913B16369013B636110BD502E002060
:1075640010B501F015FC4FF4803001F02FFC01F050
:107574007DFD012804461CD0012140F21C6001F06D
:107584001FFD01214FF4804001F01AFD01214FF449
:10759400802001F021FD01214FF4801001F01CFD39
:1075A4000121084601F018FDBDE81040012001F05A
:1075B40098BB102000F098FE022000F07DFE002011
:1075C40001F052FC002001F063FC4FF4806001F0F4
:1075D40055FC4FF480304FF4E01101F023FC2046B9
:1075E40001F02AFC392001F02DFD0028FAD00220F8
:1075F40001F028FC01F030FC0828FBD1BCE737B5CA
:107604004FF440514FF0006001F0A4FA4FF4C06011
:1076140001F0F8F900221146164801F0D1FA0124CC
:107624000025252301A88DF804308DF805508DF828
:1076340006408DF8074001F0EFF927238DF8043058
:1076440001A803238DF806308DF805508DF8074006
:1076540001F0E2F91C238DF8043001A802238DF80F
:1076640005508DF807408DF8063001F0D5F903B0C8
:1076740030BD00BF9AC302002DE9F34701A801F011
:107684000EF940F60F13704E0324102501A930465D
:10769400ADF804308DF806408DF8075001F0ADF8D0
:1076A4004FF4825301A93046ADF804304FF000097D
:1076B4008DF806408DF8075001F09FF8202301A9AA
:1076C40030464FF04808ADF804308DF8079001F0CB
:1076D40094F84FF4404301A9304606F58066ADF8AE
:1076E40004308DF8078001F088F84FF4407301A945
:1076F4003046ADF804308DF806408DF8075001F09F
:107704007CF84FF4704301A930460427ADF80430E7
:107714008DF806408DF8075001F06FF8302301A969
:107724003046ADF804308DF806408DF8075001F06E
:1077340064F84FF408630DEB07013046ADF80430EC
:107744004FF0180A8DF8077001F057F84FF488636A
:107754000DEB07013046ADF804308DF806408DF886
:1077640007A001F04AF808230DEB0701304606F59F
:107774008066ADF804308DF8078001F03EF84FF4D0
:1077840070730DEB07013046ADF804308DF80640F8
:107794008DF8075001F031F806230DEB0701304650
:1077A400ADF804308DF806408DF8075001F025F847
:1077B4004FF460430DEB07013046ADF804308DF80B
:1077C40006408DF8075001F018F84FF480530DEB84
:1077D40007013046ADF804308DF806408DF807A057
:1077E40001F00BF809230DEB07013046ADF8043026
:1077F4008DF8079001F001F80DEB07013046ADF864
:1078040004508DF8078000F0F8FF4FF440630DEB4F
:1078140007013046ADF804308DF8078000F0EDFF25
:107824000DEB07010948ADF804708DF8077000F0FE
:10783400E4FF3846012101F073F80121044801F006
:107844006FF802B0BDE8F087000801400014014061
:107854000004300010B586B001A800F0E3FB012459
:1078640000234FF4602201A9264801938DF80830C3
:107874008DF80930039204938DF8144000F0AEFBA8
:1078840001A9214800F0AAFB072322460A211D482A
:1078940000F01CFC0723224605211B4800F016FCBF
:1078A4002146184800F0C7FB1748214600F0C3FBE7
:1078B400144800F0DBFB134800F0DDFB0028FAD18C
:1078C400114800F0D3FB104800F0D5FB0028FAD192
:1078D4000C4800F0D4FB0B4800F0D6FB0028FAD18A
:1078E400094800F0CCFB084800F0CEFB0028FAD190
:1078F4000121044800F0CCFB0121034800F0C8FB3F
:1079040006B010BD002401400028014008B55A20EB
:1079140001F0E8FB012001F0FFFB012001F0E8FB8E
:10792400014B00221A7008BD542E002010B588B0F7
:1079340001A801F0D4FD04A801F0DAFD4FF0804065
:1079440001F040FC4FF6FF73002401A94FF0804082
:10795400ADF80830ADF80440ADF80A40ADF8064083
:1079640001F09AFC012240F2D2214FF0804001F054
:1079740052FE642304A94FF08040ADF81630ADF8F0
:107984001040ADF81240ADF8184001F0A3FC2146B8
:107994004FF0804001F0C4FE012202214FF08040EC
:1079A40001F0EAFD01214FF0804001F0BCFD08B078
:1079B40010BD08B56420FFF7D1FC0A4B1868FEF728
:1079C4002FFB6420FFF7CAFC074B1868FFF74AF83F
:1079D4006420FFF7C3FC054B1868BDE80840FEF7B8
:1079E400EBBD00BFE0000020E4000020E800002020
:1079F40008B5094B00221A70FFF7B2FDFFF7FFFD2F
:107A0400FFF73AFEFFF782FFFFF790FFFFF722FF31
:107A1400BDE80840FFF7CDBF802E00201FB5044607
:107A2400684602F041F90094114C0023ADF804308B
:107A3400ADF80630ADF80830ADF80C3020460C2314
:107A4400ADF80A3002F09EF80A20FFF787FC694679
:107A5400204602F0E5F80122204640F2255102F0CA
:107A640050F92046012102F040F9012004B010BD74
:107A7400004800400021014802F037B900480040A6
:107A8400C8235843FFF7BEBC024B1868B0FA80F015
:107A940040097047682E0020014608B5044802F0EA
:107AA4008AF94021024802F0E1F90028F9D008BD22
:107AB400004800400B4B19885A8889B292B291420F
:107AC4000ED05A8892B2511C89B259801A44107946
:107AD4005A88C0B292B21F2A03D900225A80704732
:107AE400FF207047AE360020074A1188538889B2B8
:107AF4009BB299421FBF53889BB29B18187914BF3D
:107B0400C0B2FF20704700BFAE36002010B540F26F
:107B140025511C4802F0B4F9002832D0194802F06B
:107B24004EF9194BC0B2232809BF93F8252000222F
:107B34000132D2B283F8252093F825101988124A0D
:107B440089B21E29118889B205D84C1CA4B21480AC
:107B54000A44107103E0114408710021118059880E
:107B64001A88094892B289B2914201BF428801320F
:107B740092B242805B889BB21F2B82BF024B0022D1
:107B84005A8010BD00480040AE360020024B00224F
:107B94001A805A80704700BFAE3600200E4A08B5DE
:107BA4001188538889B29BB2994203D1FFF7EEFF43
:107BB400002008BD5188138889B29BB299422BBF1B
:107BC4001088138880B2508825BF53882030181A33
:107BD400C01A00F0FF0008BDAE360020F0B5044620
:107BE4000E4B0026221AD2B2914214D95F881D8806
:107BF400BFB2ADB2AF420FD05A8892B2551CADB2EB
:107C04005D801A44127904F8012B5A8892B21F2A13
:107C140088BF5E80E6E70A461046F0BDAE36002017
:107C2400FFF774BF1FB50446684602F03DF80094A0
:107C3400144C0023ADF80430ADF80630ADF808302C
:107C4400ADF80C3020460C23ADF80A3001F09AFF51
:107C54000A20FFF783FB6946204601F0E1FF012279
:107C6400204640F2255102F04CF82046012102F052
:107C74003CF84FF48051044800F02DFE012004B07C
:107C840010BD00BF005000400008014008B50021AD
:107C9400044802F02AF8BDE808404FF48051024835
:107CA40000F019BE005000400008014070B50E46B7
:107CB4004B1E451EC418A5420BD015F8011F0648DB
:107CC40002F079F84021044802F0D0F80028F9D0F5
:107CD400F1E7304670BD00BF0050004070B5044667
:107CE4000E4B221AD2B2914214D993F8266093F81B
:107CF4002750AE420FD093F82620D2B2551CEDB2D5
:107D040083F826501A4492F8282004F8012B93F89B
:107D14002620E6E70A46104670BD00BFAE360020B6
:107D240010B540F22551184802F0AAF850B316488D
:107D340002F045F8154BC0B2232809BF93F825205B
:107D440000220132D2B283F8252093F8252093F83B
:107D5400272093F827200D4CD2B2511CC9B21A44E3
:107D640083F8271082F8280093F8261093F8272028
:107D7400914201BF94F826200132D2B284F8262021
:107D840093F8263010BD00BF00500040AE360020EE
:107D9400034B002283F8272083F82620704700BF76
:107DA400AE3600201FB50446684601F07DFF0094FE
:107DB400114C0023ADF80430ADF80630ADF80830AE
:107DC400ADF80C3020460C23ADF80A3001F0DAFE91
:107DD4000A20FFF7C3FA6946204601F021FF012279
:107DE400204640F2255101F08CFF2046012101F08C
:107DF4007CFF012004B010BD00380140002101487F
:107E040001F073BF00380140002370B540F2FF3029
:107E14001D46074EF41801338342054A4FF0000112
:107E240084F82854F6D1A2F82818A2F82A1870BDAC
:107E3400AE36002070B50E464B1E451EC418A54232
:107E44001BD020210E4800F046FD10210C4800F004
:107E540040FD15F8011F0B4801F0ADFF4021094812
:107E640002F004F80028F9D01021054800F033FD91
:107E74002021034800F02DFDE1E7304670BD00BF2E
:107E8400000C014000380140F0B5044640F2FE36D3
:107E9400124B0027221AD2B291421CD9B3F828E817
:107EA400B3F82A581FFA8EFEADB2AE4514D0B3F81B
:107EB400282892B2551CADB2A3F828581A4492F857
:107EC400282404F8012BB3F8282892B2B24288BFC0
:107ED400A3F82878DEE70A461046F0BDAE36002047
:107EE4001E235843FFF766BA024B1868B0FA80F0B5
:107EF40040097047602E002008B540F225511E4805
:107F040001F0BEFF002836D01B4801F058FF40F2B4
:107F1400FD311A4BC0B2B3F82A2892B28A42B3F8A0
:107F24002A2892B207D8511C89B21A44A3F82A18F5
:107F340082F8280405E01A4482F828040022A3F8F1
:107F44002A28B3F82818B3F82A280C4892B289B220
:107F5400914201BFB0F82828013292B2A0F8282833
:107F640040F2FE32B3F828389BB2934282BF034BEF
:107F74000022A3F8282808BD00380140AE360020AE
:107F840008B5154B984210D003F5A053984215D06C
:107F9400A3F5C05398421DD101214FF4007001F0A4
:107FA40027F800214FF4007010E001214FF48060A5
:107FB40001F01EF800214FF4806007E001214FF426
:107FC400004001F015F800214FF40040BDE80840DE
:107FD40001F00EB808BD00BF00280140436810B589
:107FE40023F470220B6822F4807213430A7943EA63
:107FF40002234360CA688B6884681A43084B234091
:1080040013434A7943EA42038360C36A23F4700248
:108014000B7C013BDBB242EA0353C36210BD00BFD9
:10802400FDF7F1FF00230360037143718360C360B4
:10803400012303747047836811B143F0010301E025
:1080440023F0010383607047836811B143F48073A4
:1080540001E023F4807383607047C9B243680AB1B6
:10806400194301E023EA010141607047836843F04A
:108074000803836070478068C0F3C000704783685A
:1080840043F00403836070478068C0F38000704746
:10809400836811B143F4A00301E023F4A0038360D7
:1080A40070478068C0F3805070474368013923F4F7
:1080B400604343EA413343607047436811B143F47A
:1080C400006301E023F4006343607047092970B53D
:1080D4000DD9A1F10A04C66804EB44040725A540A0
:1080E40026EA050503FA04F42C43C4600AE0066991
:1080F40001EB41040725A54026EA050503FA04F42B
:108104002C430461062A0CD8013A446B02EB820228
:108114001F23934024EA030301FA02F21A43426341
:1081240070BD0C2A0CD8073A046B02EB82021F23A1
:10813400934024EA030301FA02F21A43026370BD76
:108144000D3AC46A02EB82021F23934024EA03031C
:1081540001FA02F21A43C26270BD836811B143F49A
:10816400801301E023F4801383607047C06C80B2F5
:108174007047014B186870474C240140436811B1A3
:1081840043F4806301E023F48063436070474368F1
:1081940011B143F4805301E023F4805343607047EA
:1081A400836823F4E043194381607047836811B105
:1081B40043F4004301E023F4004383607047836881
:1081C40011B143F4021301E023F4021383607047F6
:1081D4008068C0F340507047092970B50DD9A1F1EA
:1081E4000A04C66804EB44040725A54026EA0505ED
:1081F40003FA04F42C43C4600AE0066901EB410469
:108204000725A54026EA050503FA04F42C43046176
:10821400836B0232C3F30154121BD2B202EB82020B
:108224001F24944023EA040391401943816370BDE1
:10823400836B013923F4401343EA0153836370478A
:10824400425070472831405880B27047436823F445
:10825400400323F400731943416070474162826212
:108264007047436823F01F03194341607047054B6F
:108274009A6810B142F4000201E022F400029A600C
:10828400704700BF002401400368194214BF012055
:1082940000207047C943016070474368006810EAD2
:1082A400112004D0C9B2194214BF01200020704724
:1082B4006FEA112101607047044B1A6802F038021A
:1082C4001A601A6810431860704700BF002002400B
:1082D400044B1A6822F008021A601A6810431860E6
:1082E400704700BF00200240044B1A6822F01002BD
:1082F4001A601A6810431860704700BF00200240DB
:10830400034B044A5A6002F188325A60704700BF36
:108314000020024023016745024A136943F08003A9
:108324001361704700200240014BD86980087047F0
:1083340000200240014B186A704700BF0020024031
:10834400024BD869C0F34000704700BF00200240D0
:10835400024B1868C0F34010704700BF0020024071
:10836400044B1A6909B1104301E022EA00001861C4
:10837400704700BF002002400128064B03D1D86992
:1083840000F001007047DB68184214BF0120002090
:10839400704700BF00200240014BD860704700BF07
:1083A40000200240084BDA68D10709D4DA68520782
:1083B40008D4DB6813F0100F14BF032004207047A7
:1083C40001207047022070470020024073B5044624
:1083D400FFF7E8FF0025FF2601280ED15CB10195C7
:1083E4000196019B1BB1019B013B0193F9E7FFF748
:1083F400D9FF013CF0E7052002E0002C08BF05206E
:1084040002B070BD38B5054640F6FF70FFF7DEFFD9
:10841400042814D10A4C40F6FF70236943F0020388
:1084240023616561236943F040032361FFF7CEFFB5
:1084340001281FBF41F6FD7322691340236138BD33
:108444000020024010B540F6FF70FFF7BFFF04287C
:1084540013D10A4C40F6FF70236943F004032361EF
:10846400236943F040032361FFF7B0FF01281FBFD6
:1084740041F6FB7322691340236110BD00200240C2
:1084840010B540F6FF70FFF7A1FF042829D1154C61
:10849400154B40F6FF70A36003F18833A360236992
:1084A40043F020032361236943F040032361FFF772
:1084B4008DFF04280ED141F6DF7322690F2013408B
:1084C40023612369A52243F010032361074B1A801B
:1084D400FFF77CFF01281FBF41F6EF7322691340A9
:1084E400236110BD002002402301674500F8FF1FEF
:1084F40070B506460F200D46FFF768FF042817D114
:108504000C4C0F20236943F001032361ABB2338089
:10851400FFF75CFF042804D12D0C75800F20FFF7B2
:1085240055FF01281FBF41F6FE73226913402361E2
:1085340070BD00BF0020024070B505460F200E46F6
:10854400FFF744FF04280FD1084C0F20236943F0A0
:10855400010323612E80FFF739FF01281FBF41F675
:10856400FE7322691340236170BD00BF00200240E6
:1085740070B506460F200D46FFF728FF042815D1D5
:108584000B4C0C4BADB2A36003F18833A360236999
:108594000F2043F0100323613580FFF717FF0128F4
:1085A4001FBF41F6EF7322691340236170BD00BF02
:1085B400002002402301674510B504460F20FFF751
:1085C40005FF04283FD1E4431F4B204AE1B29A60DF
:1085D40002F188329A601A69FF2942F010021A6186
:1085E40004D1C4F30723FF2B08D10EE0184B0F204E
:1085F4001981FFF7EBFE04281DD1F2E7144A0F207E
:108604005381FFF7E3FE042815D1C4F30743FF2B7E
:1086140006D00F4A0F209381FFF7D8FE04280AD111
:10862400240EFF2C01D1042007E0094BA4B2DC8105
:108634000F20FFF7CBFE012805D041F6EF73024A65
:1086440011690B40136110BD0020024023016745EE
:1086540000F8FF1F38B5054640F6FF70FFF7B6FE79
:10866400042836D11B4C1C4B40F6FF70A36003F169
:108674008833A360236943F020032361236943F013
:1086840040032361FFF7A2FE04281BD141F6DF73E8
:10869400226913402361236943F0100323610F4BC4
:1086A4000DB1002200E0A5221A8040F6FF70FFF70A
:1086B4008DFE01280DD041F6EF73064A11690B4077
:1086C400136138BD01281FBF41F6DF7322691340CF
:1086D400236138BD002002402301674500F8FF1FD5
:1086E400F8B5114D114B0646AB6003F18833AB600E
:1086F4000F200F461446FFF769FE042813D12B6997
:1087040044F0F80043F010032B613843084B304326
:1087140058800F20FFF75AFE01281FBF41F6EF7360
:108724002A6913402B61F8BD0020024023016745EC
:1087340000F8FF1F08B5294B984233D012D8A3F58F
:108744000063984220D003F58063984223D0A3F5B8
:108754000063984240D10121042000F049FC00212B
:10876400042035E01E4B984223D003F580639842E1
:1087740026D0A3F5006398422ED10121402000F0B9
:1087840037FC0021402023E00121082000F030FCC8
:10879400002108201CE00121102000F029FC002108
:1087A400102015E00121202000F022FC00212020CF
:1087B4000EE00121802000F01BFC0021802007E056
:1087C40001214FF4807000F013FC00214FF48070FD
:1087D400BDE8084000F00CBC08BD00BF0014014017
:1087E400001C014008B50121084600F001FCBDE869
:1087F40008400021012000F0FBBBCA782DE9F041BC
:10880400D40648BF8C780E8802F00F0348BF234378
:1088140016F0FF0F1ED0016800244FF0010E4FF038
:108824000F0C0EFA04F737EA06050FD1A5000CFA6F
:1088340005F821EA080103FA05F5282A41EA0501A9
:1088440001D1476102E0482A08BF07610134082CBE
:10885400E7D10160FF2E20D9416800244FF0010EBA
:108864004FF00F0C04F108050EFA05F535EA06077A
:108874000FD1A7000CFA07F821EA080103FA07F759
:10888400282A41EA070101D1456102E0482A08BFCC
:1088940005610134082CE5D14160BDE8F0814FF653
:1088A400FF730380022383700423C37070478368BB
:1088B400194214BF012000207047806880B27047BD
:1088C400C368194214BF012000207047C06880B2F9
:1088D400704701617047416170470AB10161704797
:1088E40041617047C160704741F4803383618161A5
:1088F4008361836983697047054A136823F07F03A2
:108904001B041B0C194341EA00101060704700BFA0
:1089140000000140014B1860704700BF1C0020425A
:1089240030B5134A00F44015B5F5401F536884B2BE
:1089340006D1556823F0706325F0706555600EE02C
:10894400C20255BF420D03221201C0F303454CBFBE
:10895400AA4004FA02F223EA020343F0706321B14D
:10896400400D000104FA00F00343014A536030BD96
:108974000000014001F0030301F0FC0101F180411A
:1089840001F5803110B59B008C680F229A4024EACF
:1089940002028A608A6898401043886010BD00BF54
:1089A4000B4B6FF070424FF0FF31C3F88010C3F8E7
:1089B4008420C3F88011C3F884210022104602F1F8
:1089C400C00101320F2A43F82100F8D1704700BFDB
:1089D40000E100E0094B4FF0206209495A6000228F
:1089E4009A60D9601A615A619A61DA611A625A62AC
:1089F4004FF0FF329A62DA621A63704700ED00E0CA
:108A04000000FA0540F0BF60024B40F40030D8602B
:108A1400704700BF00ED00E0C27830B503786AB358
:108A24001C4AD1684278C943C1F30221C1F104044C
:108A340002FA04F40F22CA4081780A4003F00301C9
:108A440003F0FC0303F1604303F561432243CD00CB
:108A5400D3F800431201AA40FF21A94062400A4012
:108A64006240C3F8002303780122590903F01F036D
:108A740002FA03F3084A42F8213030BD5A090121B1
:108A840003F01F0301FA03F30349203241F82230B3
:108A940030BD00BF00ED00E000E100E00023037002
:108AA40043708370C370704701F037BA01F037BA6E
:108AB40001F037BA01F037BA000101F036BA01F01B
:108AC40037BA024B5868C0F30930704700ED00E034
